S01500005761726D65725F56315F5049442E737265637F
S1130000EFC000001DC100001BC1000019C10000A9
S113001017C10000F4C2000013C1000011C10000A8
S11300200FC100000DC100000BC1000009C1000098
S113003007C1000094C2000003C1000043C10000D6
S1130040FFC00000FDC00000FBC00000F9C00000BC
S1130050F7C00000F5C00000F3C00000F1C00000CC
S1130060EFC00000A5C60000EBC00000E9C000001E
S1130070E7C00000E5C00000E3C00000E1C00000EC
S1130080AFC20000DDC00000DBC00000D9C000002A
S1130090D7C00000D5C00000D3C00000D1C000000C
S11300A0CFC00000CDC00000CBC00000C9C000001C
S11300B0C7C00000C5C00000C3C00000C1C000002C
S11300C0BFC00000BDC00000BBC00000B9C000003C
S11300D0B7C00000B5C00000B3C00000B1C000004C
S11300E0AFC0000000407A10F35A00A0724E180905
S11300F00010A5D4E80000E87648170000E40B548B
S1130100020000CA9A3B000000E1F5050000809659
S11301109800000040420F000000A086010000008B
S1130120102700000000E803000000006400000045
S113013000000A00000000000100000000002C760E
S1130140D888DC674F0823DFC1DFAE59E1B1B79629
S1130150E5E3E453C63AE651997696E8E6C2842686
S1130160EB898C9B62ED407C6FFCEFBC9C9F40F262
S1130170BAA56FA5F490055A2AF75C936B6CF967DE
S11301806DC11BFCE0E40D47FEF520E6B500D0EDA3
S1130190902E0300943577050080841E080000200B
S11301A04E0A000000C80C333333330F986E1283A9
S11301B01141EF8D2114893BE65516CFFEE6DB187D
S11301C0D1844B381BF77C1D901DA4BBE424203242
S11301D084725E228100C9F124ECA1E53D270E035F
S11301E011241FBECFEFD1E2DEBFCDBF00E00CBFB4
S11301F012E0A0E0B2E0E8E0F8E100E00BBF02C0EA
S113020007900D92AE30B107D9F722E0AEE0B2E02C
S113021001C01D92A938B207E1F710E0C0EFD0E0A9
S113022000E006C021970109802FFE010E945A09AF
S1130230CF3ED10780E00807A9F70AD10C94020C3D
S1130240DFCE259AE1E0F1E08081806180832D9802
S113025080980895EAE0F1E0808182608083808163
S1130260806280838081886080836B9AE1E0F1E022
S11302708081886080839D9A08956C987498E9E6DB
S1130280F0E0808182608083EC9AE49A0895E1E949
S1130290F0E080818B608083E0E9F0E0808180641D
S11302A08083109295001092940084E690E09093DD
S11302B0990080939800E1E7F0E080818260808378
S11302C0C19A08951F920F920FB60F9211248F9323
S11302D09F93AF93BF9380916F0290917002A0910E
S11302E07102B09172020196A11DB11D80936F023B
S11302F090937002A0937102B093720280916B028A
S113030090916C02A0916D02B0916E020396A11DB2
S1130310B11D80936B0290936C02A0936D02B09315
S11303206E0280916B0290916C02A0916D02B0916B
S11303306E028D379105A105B10538F180916B02EC
S113034090916C02A0916D02B0916E028D5791094B
S1130350A109B10980936B0290936C02A0936D0282
S1130360B0936E0280916F0290917002A09171021D
S1130370B09172020196A11DB11D80936F029093FA
S11303807002A0937102B0937202BF91AF919F91DA
S11303908F910F900FBE0F901F901895CF92DF9200
S11303A0EF92FF920F931F93CF93DF93789482E69B
S11303B092E047DF8AE492E04DDF62E070E085E698
S11303C092E081D485E692E082D468EC70E085E620
S11303D092E083D48EE092E042D44FDF83E192E056
S11303E067D355DFC3E1D2E01D8A1E8A1F8A188EA7
S11303F080E098E3ACE9B5E4898B9A8BAB8BBC8B3A
S113040060910202709103028091040290910502AE
S1130410B0D57EAB6DAB0F2EFAE0CF2EF7EDDF2E0D
S1130420F3EAEF2EFBE3FF2EF02D06EB13EF25E1AD
S113043030E44EE05DE26AEB7FE3CE015ED3DF9110
S1130440CF911F910F91FF90EF90DF90CF9008957F
S113045062D461E08DE592E0F1D1A0DF8FE39CE905
S11304600197F1F700C00000C3E1D2E0809164027B
S1130470882309F472C000E010E027ED33E440E083
S113048050E068EC72E48DE592E019D26093590271
S113049070935A0280935B0290935C028881882354
S11304A069F14091590250915A0260915B02709136
S11304B05C02CE013CD360930F02709310028093D0
S11304C011029093120260910F02709110028091B8
S11304D01102909112024DD5CB0131D488E092E003
S11304E056D46091590270915A0280915B029091A6
S11304F05C025BD488E092E04AD4188280916A025C
S1130500882341F160910F027091100280911102D1
S1130510909112022ED58EE092E0B3D3C0900F02D8
S1130520D0901002E0901102F09012026091060245
S113053070910702072E000C880B990B4DD5A7016B
S1130540960146D416D5CB01FAD38AE092E01FD4A3
S113055010926A021092640289CF000087CF1F9222
S11305600F920FB60F9211242F933F938F939F9363
S11305701092B200809163028F5F80936302809136
S11305806902882349F0809167029091680201967C
S11305909093680280936702809157029091580269
S11305A001969093580280935702209157023091FC
S11305B058028091000290910102281739073CF0FB
S11305C081E08093640210925802109257029F9126
S11305D08F913F912F910F900FBE0F901F90189500
S11305E01F920F920FB60F9211248F9381E0809384
S11305F013028F910F900FBE0F901F9018951F92AA
S11306000F920FB60F9211248F9381E080936A02A8
S11306108F910F900FBE0F901F9018951092520259
S11306201092510210924C0210924B021092380216
S11306301092390210923A0210923B0208956EBD54
S11306400DB407FEFDCF8EB50895EF92FF920F9380
S11306501F93CF93DF937C01EA01122FFC01808169
S1130660882319F0813051F011C0EBE0F1E0808172
S11306708E7F808380818460808308C0EBE0F1E01A
S113068080818B7F80838081816080836F77C701C5
S1130690D6DF0FEF010F112361F010E00F5F1F4F42
S11306A00C0F1D1F6FEFC701CADF8993C017D10755
S11306B0C9F7F7018081882319F0813039F00BC024
S11306C0EBE0F1E080818160808305C0EBE0F1E044
S11306D0808184608083DF91CF911F910F91FF907F
S11306E0EF900895CF93DF931F92CDB7DEB71982B1
S11306F021E0AE014F5F5F4FA8DF89810F90DF914A
S1130700CF910895CF93DF931F921F92CDB7DEB799
S113071019821A8222E0AE014F5F5F4F96DF898112
S113072090E0982F88272A81822B0F900F90DF91D9
S1130730CF9108951F93CF93DF93EC01142F8881F9
S1130740882319F0813051F011C0EBE0F1E0808191
S11307508E7F808380818460808308C0EBE0F1E039
S113076080818B7F80838081816080836068CE01FB
S113077066DF612FCE0163DF8881882319F0813021
S113078039F00BC0EBE0F1E080818160808305C02B
S1130790EBE0F1E0808184608083DF91CF911F9151
S11307A00895CF93DF93EC0160E09CDF837D482FB5
S11307B0426060E0CE01BEDFDF91CF9108951F93C8
S11307C0CF93DF93EC01162F60E08CDF112319F037
S11307D0482F406802C0482F4F7760E0CE01AADF5F
S11307E0DF91CF911F9108951F93CF93DF93EC0175
S11307F0162F60E077DF112319F0482F406402C000
S1130800482F4F7B60E0CE0195DFDF91CF911F91A0
S113081008951F93CF93DF93EC01162F60E062DFFE
S1130820113019F4482F406102C0482F4F7E60E018
S1130830CE0180DFDF91CF911F9108951F93CF9355
S1130840DF93EC01162FE8E0F1E08081806C808377
S113085023D285E58CBD188361E0CE01DADF60E048
S1130860CE01ADDF60E0CE01BFDFCE019ADF81E0D3
S1130870DF91CF911F910895CF93DF93EC0191DF26
S113088061E0CE019CDF83EC99E00197F1F700C0B1
S1130890000060E0CE0126DF482F406260E0CE0118
S11308A049DF89E79FE30197F1F700C0000061E0A9
S11308B0CE0128DF96958795DF91CF9108954F92C9
S11308C05F926F927F928F929F92AF92BF92CF92DC
S11308D0DF92EF92FF920F931F93CF93DF936A01FE
S11308E07B0148015901C8DFBC0180E090E072D36C
S11308F020E030E040E058E323D4A501940120D463
S11309004B015C01A70196016FE775E08BE196EB63
S1130910C8D22B013C01A5019401C301B20110D43A
S113092026E133E843E957E354D271D422E331E1B9
S113093040E85BE34DD22FE735E04BE955EBB1D20C
S1130940062F172FD82FC92F20E030E0A901F4D3A8
S113095088230CF060C0A7019601C501B401A1D29F
S113096020E030E048EC52E4EBD36B017C012BE552
S113097032E44EE050E4E4D32FE135E042E753E4BF
S113098027D22B013C01A7019601C701B601D8D398
S11309904B015C0124E338E749E25BE3D1D3A301D3
S11309A0920117D22B013C01A5019401C701B601A4
S11309B0C7D34B015C0126E03FEE41EA56E3C0D3C6
S11309C09B01AC01C301B20103D22B013C01A5017F
S11309D09401C701B601B4D34B015C0123E137E1B3
S11309E042EF52E3ADD39B01AC01C301B201F0D19C
S11309F02B013C01A5019401C701B601A1D32BE34E
S1130A0039E947E25FE29CD3A3019201E2D1062FC8
S1130A10172FD82FC92F602F712F8D2F9C2FDF9167
S1130A20CF911F910F91FF90EF90DF90CF90BF90E7
S1130A30AF909F908F907F906F905F904F900895AC
S1130A408F929F92AF92BF92CF92DF92EF92FF92DA
S1130A500F931F93CF93DF93EC014A015B0168016D
S1130A6079019A01AB01688179818A819B8115D2D0
S1130A70882324F488829982AA82BB82A7019601E2
S1130A80688179818A819B8157D3181624F4C8829E
S1130A90D982EA82FB82DF91CF911F910F91FF905F
S1130AA0EF90DF90CF90BF90AF909F908F9008957C
S1130AB0FC0111821282138214821582168217821B
S1130AC010861186128613861486118E128E138E4A
S1130AD0148E158616861786108A11A612A613A6DA
S1130AE014A615A616A617A610AA11AA12AA13AA26
S1130AF014AA16AA15AA10820895CF92DF92EF9233
S1130B00FF920F931F93FC01418352836383748389
S1130B100583168327833087C186D286E386F486CD
S1130B201F910F91FF90EF90DF90CF9008958F92D7
S1130B309F92AF92BF92CF92DF92EF92FF920F9368
S1130B401F93CF93DF93EC016A017B016DA97EA90A
S1130B50072E000C880B990B3FD2A701960138D1C0
S1130B606B017C01698F7A8F8B8F9C8F2D813E81E5
S1130B704F815885E5D229A13AA14BA15CA129D185
S1130B804B015C0120E030E44CE955E4D5D2181661
S1130B904CF480E090E4ACE9B5E489A39AA3ABA358
S1130BA0BCA316C020E030E44CE955ECC501B40107
S1130BB074D188232CF089A29AA2ABA2BCA208C04B
S1130BC080E090E4ACE9B5EC89A39AA3ABA3BCA301
S1130BD029813A814B815C81C701B601B1D229A137
S1130BE03AA14BA15CA1F5D04B015C012DA53EA51A
S1130BF04FA558A9C701B601EBD029853A854B8585
S1130C005C859ED29B01AC01C501B401E1D06D8F1E
S1130C107E8F8F8F98A309891A892B893C894D89E6
S1130C205E896F89788DCE014D960ADF898D9A8D04
S1130C30AB8DBC8D8DA79EA7AFA7B8AB6D8D7E8DF8
S1130C408F8D98A1DF91CF911F910F91FF90EF901D
S1130C50DF90CF90BF90AF909F908F900895259A8A
S1130C60E0E8F0E0808182688083E1E8F0E0808160
S1130C708A61808387E893E190938700809386005C
S1130C800895673883E1780714F067E873E1709397
S1130C908900609388000895209A8CB580618CBD8A
S1130CA08CB580648CBD8CB58C7F8CBD219A229AC6
S1130CB0EAE0F1E0808185608083EBE0F1E080810F
S1130CC0856080830895FC01718360830895E0E763
S1130CD0F0E08081826080830895072E000C880BE9
S1130CE0990B7AD120E030E04AE751E429D241D18E
S1130CF06093B300E1EBF0E0808185608083089528
S1130D000F931F9303E712E021E042E0DBD2C80116
S1130D101F910F9108951092C50087E68093C40037
S1130D2088E98093C10086E08093C2000895E0ECD6
S1130D30F0E0908195FFFDCF8093C60008950F9356
S1130D401F93CF93DF93CDB7DEB764970FB6F894B4
S1130D50DEBF0FBECDBF4AE0BE016F5F7F4FD1D271
S1130D608981882349F08E010E5F1F4FE0DFF8016F
S1130D7081918F018111FACF64960FB6F894DEBF8A
S1130D800FBECDBFDF91CF911F910F910895CF93E7
S1130D90DF93EC018881882329F02196C8DF8991AB
S1130DA08111FCCFDF91CF910895AADFF0CF089590
S1130DB01F920F920FB60F9211248F938091C60049
S1130DC0809388028F910F900FBE0F901F901895FB
S1130DD05058BB27AA270ED075C166D130F06BD10D
S1130DE020F031F49F3F11F41EF45BC10EF4E09542
S1130DF0E7FB51C1E92F77D180F3BA176207730774
S1130E008407950718F071F49EF58FC10EF4E095F0
S1130E100B2EBA2FA02D0B01B90190010C01CA01B0
S1130E20A0011124FF27591B99F0593F50F4503E5B
S1130E3068F11A16F040A22F232F342F4427585F4D
S1130E40F3CF469537952795A795F0405395C9F765
S1130E507EF41F16BA0B620B730B840BBAF091501D
S1130E60A1F0FF0FBB1F661F771F881FC2F70EC0BC
S1130E70BA0F621F731F841F48F48795779567958F
S1130E80B795F7959E3F08F0B3CF9395880F08F078
S1130E909927EE0F979587950895D9D008F481E0A6
S1130EA008950CD00FC107D140F0FED030F021F4EA
S1130EB05F3F19F0F0C0511139C1F3C014D198F358
S1130EC09923C9F35523B1F3951B550BBB27AA27C7
S1130ED062177307840738F09F5F5F4F220F331F39
S1130EE0441FAA1FA9F333D00E2E3AF0E0E830D005
S1130EF091505040E695001CCAF729D0FE2F27D008
S1130F00660F771F881FBB1F261737074807AB07D5
S1130F10B0E809F0BB0B802DBF01FF2793585F4F4A
S1130F202AF09E3F510568F0B6C000C15F3FECF364
S1130F30983EDCF3869577956795B795F7959F5F0F
S1130F40C9F7880F911D9695879597F90895E1E063
S1130F50660F771F881FBB1F621773078407BA07C2
S1130F6020F0621B730B840BBA0BEE1F88F7E0951D
S1130F70089504D06894B111D9C00895BCD088F004
S1130F809F5790F0B92F9927B751A0F0D1F0660F71
S1130F90771F881F991F1AF0BA95C9F712C0B1308C
S1130FA081F0C3D0B1E00895C0C0672F782F88279F
S1130FB0B85F39F0B93FCCF3869577956795B395CB
S1130FC0D9F73EF490958095709561957F4F8F4F3A
S1130FD09F4F0895E89409C097FB3EF4909580953F
S1130FE0709561957F4F8F4F9F4F9923A9F0F92FEB
S1130FF096E9BB279395F695879577956795B79569
S1131000F111F8CFFAF4BB0F11F460FF1BC06F5F4E
S11310107F4F8F4F9F4F16C0882311F096E911C060
S1131020772321F09EE8872F762F05C0662371F081
S113103096E8862F70E060E02AF09A95660F771F95
S1131040881FDAF7880F9695879597F90895990F71
S11310500008550FAA0BE0E8FEEF16161706E8077E
S1131060F907C0F012161306E407F50798F0621B9F
S1131070730B840B950B39F40A2661F0232B242B74
S1131080252B21F408950A2609F4A140A6958FEF93
S1131090811D811D089597F99F6780E870E060E0E5
S11310A008959FEF80EC089500240A9416161706FD
S11310B018060906089500240A9412161306140645
S11310C005060895092E0394000C11F4882352F0A8
S11310D0BB0F40F4BF2B11F460FF04C06F5F7F4F60
S11310E08F4F9F4F089557FD9058440F551F59F047
S11310F05F3F71F04795880F97FB991F61F09F3F01
S113110079F087950895121613061406551FF2CF29
S11311104695F1DF08C0161617061806991FF1CF79
S113112086957105610508940895E894BB276627A0
S11311307727CB0197F908958ADF08F48FEF089594
S11311400BD0C0CFB1DF28F0B6DF18F0952309F03B
S1131150A2CFA7CF1124EACFC6DFA0F3959FD1F386
S1131160950F50E0551F629FF001729FBB27F00D51
S1131170B11D639FAA27F00DB11DAA1F649F6627A6
S1131180B00DA11D661F829F2227B00DA11D621FF5
S1131190739FB00DA11D621F839FA00D611D221FAF
S11311A0749F3327A00D611D231F849F600D211D93
S11311B0822F762F6A2F11249F5750408AF0E1F036
S11311C088234AF0EE0FFF1FBB1F661F771F881F7F
S11311D091505040A9F79E3F510570F05CCFA6CFC7
S11311E05F3FECF3983EDCF3869577956795B7956A
S11311F0F795E7959F5FC1F7FE2B880F911D969594
S1131200879597F9089511F40EF44BCF3EC073DF20
S1131210D0F39923D9F3CEF39F57550B87FF43D0CF
S11312200024A0E640EA900180585695979528F44A
S1131230805C660F771F881F20F026173707480742
S113124030F4621B730B840B202931294A2BA69599
S113125017940794202531254A2758F7660F771FDE
S1131260881F20F026173707480730F4620B730BEA
S1131270840B200D311D411DA09581F7B901842FE8
S11312809158880F9695879508959F3F31F0915016
S113129020F4879577956795B795880F911D969556
S11312A0879597F9089591505040660F771F881FCE
S11312B0D2F70895EE0FFF1F881F8BBF0790F6919A
S11312C0E02D1994EF920F931F93CF93DF93E801CE
S11312D047FD02C034E001C034E1042E000C550B7C
S11312E057FF03C0519541955109E32E022F242F36
S11312F0AE012AD0CE01DF91CF911F910F91EF90D3
S11313000895BB274A3031F4992322F4BDE2909525
S113131081959F4F01C0BB27FB015527AA27880F42
S1131320991FAA1FA41710F0A41B83955051B9F755
S1131330A05DAA3308F0A95DA193009779F7B111D4
S1131340B1931192CB014EC28F929F92AF92BF92F2
S1131350CF92DF92EF92FF920F931F93CF93DF937D
S1131360CDB7DEB729970FB6F894DEBF0FBECDBF59
S11313706A01122FB02E2BE3201720F0FF24F394E0
S1131380F00E02C02CE3F22E0F2D27E0AE014F5FCA
S11313905F4F50D1BC014981842F8970813031F075
S11313A0E1FC06C0E0FE06C090E205C09DE203C079
S11313B09BE201C090E05E2D507143FF3CC091114F
S11313C002C083E001C084E0811718F4212F281B98
S11313D001C020E051110BC0F601822F30E28823B6
S11313E019F031938150FBCFC20ED11C20E0992318
S11313F029F0D6019C93F60131966F01C60103963C
S1131400E2FE0AC03EE4D6013C9341E411964C93BB
S1131410119712963C9306C03EE6F601308341E6EE
S113142041833283FC01322F40E2332309F442C06A
S113143041933150FACF42FF44C0911102C083E07E
S113144001C084E0811718F4212F281B01C020E07B
S113145051110BC0F601822F30E2882319F0319329
S11314608150FBCFC20ED11C20E0992329F0D60174
S11314709C93F60131966F01C6010396E2FE0BC000
S113148039E4D6013C933EE411963C93119736E43B
S113149012963C9307C039E6F60130833EE6318369
S11314A036E63283FC01322F40E2332319F04193B4
S11314B03150FBCFFC01E20FF11D10828EEF9FEF44
S11314C0A6C021E030E0911102C020E030E0161601
S11314D017061CF4FB01319602C0E1E0F0E02E0F88
S11314E03F1FBB2021F0EB2DF0E0319602C0E0E07D
S11314F0F0E02E0F3F1FE12FF0E02E173F071CF402
S1131500121B212F01C020E08E2D887159F4F601A1
S1131510822F30E2882319F031938150FBCFC20E21
S1131520D11C20E0992329F0D6019C93F601319631
S11315306F0151110BC0F601822F90E3882319F03B
S113154091938150FBCFC20ED11C20E00F2D060FCA
S11315509A81342F307144FF03C0913309F4015050
S1131560101624F4093018F008E001C001E0AB01C2
S113157077FF02C040E050E0FB01E41BF50BA1E063
S1131580B0E0AC0FBD1FEA0FFB1F8EE2A82E4B018B
S1131590801A91080B2D10E01195019511094F3F08
S11315A0BFEF5B0721F4D601AC9211966D0164176D
S11315B075072CF08416950614F4818101C080E32C
S11315C0415051093196D60111967D0140175107BA
S11315D024F0D6018C936701E2CF6417750739F4C0
S11315E0963320F4953319F4311101C081E3F601E7
S11315F08083F701822F90E2882319F09193815020
S1131600FBCFF701E20FF11D108280E090E02996F4
S11316100FB6F894DEBF0FBECDBFDF91CF911F91FF
S11316200F91FF90EF90DF90CF90BF90AF909F907D
S11316308F900895283008F027E03327DA01990FB6
S1131640311D87FD916000966105710539F43260A2
S11316502E5F3D9330E32A95E1F708959F3F30F0E4
S113166080387105610509F03C5F3C5F3D93913022
S113167008F08068911DDF93CF931F930F93FF921F
S1131680EF92192F987F9695E92F96959695E90FE5
S1131690FF27E25CFE4F99273327EE24FF24A7019E
S11316A0E70105900894079428F4360FE71EF81E06
S11316B0491F511D660F771F881F991F0694A1F7B4
S11316C00590079428F4E70EF81E491F561FC11D04
S11316D0770F881F991F661F0694A1F7059007943A
S11316E028F4F80E491F561FC71FD11D880F991FD4
S11316F0661F771F0694A1F70590079420F4490FFD
S1131700561FC71FD81F990F661F771F881F06947F
S1131710A9F784911095177041F0D695C795579500
S11317204795F794E7941A95C1F7E4EEF0E06894CE
S11317301590159135916591959105907FE273957A
S1131740E118F10A430B560BC90BD009C0F7E10CA1
S1131750F11E431F561FC91FD01D7EF4703311F4B0
S11317608A95E6CFE894015030F0080F0AF4002778
S1131770021708F4202F2395022F7A3328F079E3F7
S11317807D932A95E9F710C07D932A9589F60694EE
S113179097956795379517951794E118F10A430BB8
S11317A0560BC90BD00998F023957E9173957A3323
S11317B008F070E37C932013B8F77E9170617D93F9
S11317C030F0839571E37D9370E32A95E1F711245A
S11317D0EF90FF900F911F91CF91DF91992787FD93
S11317E090950895DC01FC01672F71917723E1F74F
S11317F0329704C07C916D9370836291AE17BF07DA
S10B1800C8F30895F894FFCF2A
S111180801000000F041871309000D0A0000E2
S9030000FC
