S0150000426162795761726D6572556E6F2E73726563F1
S113000072C00000A0C000009EC000009CC00000A0
S11300109AC0000098C0000096C0000094C0000080
S113002092C0000090C000008EC000008CC0000090
S11300308AC0000088C0000086C0000084C00000A0
S113004082C0000001C100007EC000007CC000002E
S11300507AC0000078C0000076C0000074C00000C0
S113006072C000000C94150E6EC000006CC000003D
S11300706AC0000068C0000066C0000064C00000E0
S113008062C0000060C000005EC000005CC00000F0
S11300905AC0000058C0000056C0000054C0000000
S11300A052C0000050C000004EC000004CC0000010
S11300B04AC0000048C0000046C0000044C0000020
S11300C042C0000040C000003EC000003CC0000030
S11300D03AC0000038C0000036C0000034C0000040
S11300E032C000008D0A11241FBECFEFD1E2DEBF63
S11300F0CDBF00E00CBF12E0A0E0B2E0E0E9F1E225
S113010000E00BBF02C007900D92AA30B107D9F7E7
S113011022E0AAE0B2E001C01D92A834B207E1F7E0
S113012010E0C3E7D0E000E006C021970109802F6A
S1130130FE010E94BE10C237D10780E00807A9F76C
S113014040D70C94C6105CCF78948CE392E00E9464
S1130150A60A85E192E00E94BF0A61E070E081E4B2
S113016092E00E94EA0D81E492E00E94EE0D68ECB8
S113017070E081E492E00E94F40D24E030E044E079
S113018050E060E070E08CE192E00E94500D8FE35B
S11301909CE90197F1F700C0000024E030E044E05E
S11301A050E061E070E086E192E00E94500D8FE340
S11301B09CE90197F1F700C0000060E08CE192E057
S11301C00E948B0D8FE39CE90197F1F700C00000BA
S11301D060E086E192E00E948B0D8FE39CE9019739
S11301E0F1F700C0000060E08CE192E00E948B0D0A
S11301F08FE39CE90197F1F700C0000060E086E11D
S113020092E00E948B0D8FE39CE90197F1F700C007
S113021000008CE192E00E94AA0D9FEF26E781E0A6
S1130220915020408040E1F700C0000086E192E058
S11302300E94AA0D9FEF26E781E091502040804064
S1130240E1F700C0000008951F920F920FB60F92BD
S113025011242F933F938F939F93109285001092B4
S1130260840080913F028F5F80933F028091460219
S1130270882349F08091440290914502019690931D
S113028045028093440280912202909123020196B8
S11302909093230280932202209122023091230220
S11302A08091000290910102281739073CF081E007
S11302B08093400210922302109222029F918F9108
S11302C03F912F910F900FBE0F901F9018954F9252
S11302D05F926F927F928F929F92AF92BF92CF92D2
S11302E0DF92EF92FF920F931F93CF93DF932B0133
S11302F03C0149015A016701780143EF69E08CE14F
S113030092E00E94580D40E063E08CE192E00E948C
S1130310580D20E030E040E251E4C301B2010E94F4
S11303208E0E0E94FB0E462F68E08CE192E00E9444
S1130330580DC301B2010E94F60ECAE0D0E0CB0111
S1130340BE010E949710482F406866E08CE192E05D
S11303500E94580D20E030E040E251E4C301B201B4
S11303600E94DD0F0E94F60ECB01BE010E94971081
S1130370482F62E08CE192E00E94580D40E064E076
S11303808CE192E00E94580D20E030E040E251E41C
S1130390C501B4010E948E0E0E94FB0E462F67E039
S11303A08CE192E00E94580DC501B4010E94F60E42
S11303B0CB01BE010E949710482F406865E08CE194
S11303C092E00E94580D20E030E040E251E4C50183
S11303D0B4010E94DD0F0E94F60ECB01BE010E9403
S11303E09710482F61E08CE192E00E94580D42EA98
S11303F069E086E192E00E94580D40E064E086E105
S113040092E00E94580D20E030E040E251E4C70140
S1130410B6010E948E0E0E94FB0E462F66E086E116
S113042092E00E94580DC701B6010E94F60ECB015E
S1130430BE010E949710482F406868E086E192E070
S11304400E94580D20E030E040E251E4C701B601BB
S11304500E94DD0F0E94F60ECB01BE010E94971090
S1130460482F62E086E192E00E94580DDF91CF911F
S11304701F910F91FF90EF90DF90CF90BF90AF90BE
S11304809F908F907F906F905F904F900895CF9240
S1130490DF92EF92FF9260912C0270912D02809175
S11304A02E0290912F0226E636E645E152E40E94A0
S11304B0D90F181674F410920D0281E080930C0287
S11304C041E050E060E070E085E192E00E94D20AF1
S11304D058C0C0902C02D0902D02E0902E02F090D3
S11304E02F0220E030E040E85FE360910602709163
S11304F0070280910802909109020E94250EA7012B
S113050096010E94D90F181634F481E080930D02ED
S113051010920C0236C060912802709129028091D9
S11305202A0290912B0220E030E04CE152E40E9438
S1130530D90F181684F481E080930B0210920C02F8
S113054010920D0241E050E061E070E085E192E03C
S11305500E94D20A16C010920B0210920C02109242
S11305600D0240E050E061E070E085E192E00E941D
S1130570D20A40E050E060E070E085E192E00E9441
S1130580D20AFF90EF90DF90CF900895CF92DF9240
S1130590EF92FF92CF93DF936B017C0142EA69E013
S11305A086E192E00E94580D40E064E086E192E02A
S11305B00E94580D20E030E040E251E4C701B6014A
S11305C00E948E0E0E94FB0E462F66E086E192E0AA
S11305D00E94580DC701B6010E94F60ECAE0D0E091
S11305E0CB01BE010E949710482F406868E086E165
S11305F092E00E94580D20E030E040E251E4C7014F
S1130600B6010E94DD0F0E94F60ECB01BE010E94CE
S11306109710482F62E086E192E00E94580DDF9126
S1130620CF91FF90EF90DF90CF90089540E069E084
S11306308CE192E00E94580D4BE563E08CE192E07E
S11306400E94580D4FE467E08CE192E00E94580D3F
S113065045E165E08CE192E00E94580D4BE561E0D4
S11306608CE192E00E94580D47E464E08CE192E052
S11306700E94580D47E768E08CE192E00E94580D13
S113068046E066E08CE192E00E94580D4EE062E0A4
S11306908CE192E00E94580D41E050E065E070E08A
S11306A085E192E07FC7089540E069E08CE192E043
S11306B00E94580D40E063E08CE192E00E94580DE6
S11306C04BE567E08CE192E00E94580D4FE465E051
S11306D08CE192E00E94580D4FE061E08CE192E0E1
S11306E00E94580D4FE064E08CE192E00E94580DA6
S11306F047E668E08CE192E00E94580D40E066E035
S11307008CE192E00E94580D40E062E08CE192E0BE
S11307100C94580D089540E069E08CE192E00E9449
S1130720580D40E063E08CE192E00E94580D47E6EA
S113073067E08CE192E00E94580D46E465E08CE1AC
S113074092E00E94580D4FE661E08CE192E00E9435
S1130750580D47E364E08CE192E00E94580D4FE6A7
S113076068E08CE192E00E94580D4DE766E08CE170
S113077092E00E94580D4FE062E08CE192E00E940A
S1130780580D41E050E064E070E085E192E00AC772
S1130790089540E069E08CE192E00E94580D47E33F
S11307A063E08CE192E00E94580D46E067E08CE142
S11307B092E00E94580D4FE565E08CE192E00E94C2
S11307C0580D47E361E08CE192E00E94580D4FE040
S11307D064E08CE192E00E94580D47E668E08CE109
S11307E092E00E94580D40E066E08CE192E00E94A5
S11307F0580D40E062E08CE192E00C94580D0895AD
S113080040E069E08CE192E00E94580D40E063E032
S11308108CE192E00E94580D40E067E08CE192E0A8
S11308200E94580D4EE065E08CE192E00E94580D64
S11308304EEF61E08CE192E00E94580D4FE064E0DD
S11308408CE192E00E94580D47E668E08CE192E06A
S11308500E94580D40E066E08CE192E00E94580D41
S113086040E062E08CE192E00C94580D089540E081
S113087069E08CE192E00E94580D47E363E08CE16B
S113088092E00E94580D46E067E08CE192E00E94FD
S1130890580D4FE565E08CE192E00E94580D47E366
S11308A061E08CE192E00E94580D47E764E08CE13E
S11308B092E00E94580D46E068E08CE192E00E94CC
S11308C0580D46E466E08CE192E00E94580D40E049
S11308D062E08CE192E00C94580D0895EF92FF923F
S11308E00F931F93E0910C02EE2341F0E091430239
S11308F0EE2311F04EDF19C0EADC17C0E0910D02BF
S1130900EE2341F0E0914302EE2311F079DF0DC0B4
S1130910DEDC0BC0E0910B02EE2339F0E0914302E0
S1130920EE2311F0A4DF01C0D2DC9091430281E0F8
S11309308927809343021F910F91FF90EF900895B0
S11309404FE763E08CE192E00E94580D47E767E0CF
S11309508CE192E00E94580D4FE765E08CE192E053
S11309600E94580D4BE361E08CE192E00E94580D27
S11309704FE764E08CE192E00E94580D47E768E09D
S11309808CE192E00E94580D4FE766E08CE192E022
S11309900E94580D4BE362E08CE192E00C94580DF8
S11309A0089545E163E08CE192E00E94580D47E729
S11309B067E08CE192E00E94580D45E165E08CE12E
S11309C092E00E94580D4EE761E08CE192E00E94B3
S11309D0580D45E164E08CE192E00E94580D47E730
S11309E068E08CE192E00E94580D45E166E08CE1FC
S11309F092E00E94580D46E062E08CE192E00C9493
S1130A00580D089540E069E08CE192E00E94580D91
S1130A1040E063E08CE192E00E94580D40E067E022
S1130A208CE192E00E94580D47E665E08CE192E08B
S1130A300E94580D46E461E08CE192E00E94580D5A
S1130A4047E464E08CE192E00E94580D47E768E0D7
S1130A508CE192E00E94580D46E066E08CE192E061
S1130A600E94580D4EE062E08CE192E00E94580D25
S1130A7041E050E063E070E085E192E093D540E02E
S1130A8050E065E070E085E192E08CD540E050E014
S1130A9064E070E085E192E085C508958CE392E01E
S1130AA062D52FEF81EE94E0215080409040E1F731
S1130AB000C000008CE392E05CD52FEF81EE94E05F
S1130AC0215080409040E1F700C000008CE392E0A8
S1130AD04AD52FEF81EE94E0215080409040E1F719
S1130AE000C000008CE392E044D52FEF85EA9EE03D
S1130AF0215080409040E1F700C000008CE392E078
S1130B0032D52FEF81EE94E0215080409040E1F700
S1130B1000C000008CE392E02CD52FEF81EE94E02E
S1130B20215080409040E1F700C000008CE392E047
S1130B301AD52FEF81EE94E0215080409040E1F7E8
S1130B4000C000008CE392E014C508958CE392E0A9
S1130B500AD52FEF81EE94E0215080409040E1F7D8
S1130B6000C000008CE392E004D52FEF81EE94E006
S1130B70215080409040E1F700C000008CE392E0F7
S1130B80F2D42FEF81EE94E0215080409040E1F7C1
S1130B9000C000008CE392E0ECD42FEF81EE94E0EF
S1130BA0215080409040E1F700C000000895CF92AA
S1130BB0DF92EF92FF920F931F9360912C0270913A
S1130BC02D0280912E0290912F022DEC3CEC44E1F9
S1130BD052E40E94D90F181664F1C0902C02D090F0
S1130BE02D02E0902E02F0902F0220E030E040E849
S1130BF05FE3609106027091070280910802909170
S1130C0009020E94250EA70196010E94D90F181609
S1130C1084F0609128027091290280912A029091B7
S1130C202B0220E030E04CE152E40E94D90F181668
S1130C30C4F42DDC80914602811125C081E08093AB
S1130C403B02809110028823F1F081E080934602F8
S1130C5010924502109244021092100210923B022C
S1130C6012C08CE392E085D410923B0240E050E045
S1130C7060E070E085E192E095D410924602109213
S1130C8045021092440260912C0270912D028091D1
S1130C902E0290912F0220E030E0A9010E948A0EDA
S1130CA0181684F460912C0270912D0280912E020A
S1130CB090912F0220E030E048E452E40E94D90FE2
S1130CC0882364F180914002882331F1109240021C
S1130CD061E08CE192E01FD761E086E192E01BD7EE
S1130CE0A5DC61E080E392E0B5D500E010E027EDFB
S1130CF033E440E050E068EC72E480E392E0EBD54A
S1130D0060932C0270932D0280932E0290932F02F5
S1130D1081E080933E0204C0000002C010923E02B3
S1130D20609128027091290280912A0290912B02ED
S1130D3020E030E0A901EED7181684F4609128026F
S1130D407091290280912A0290912B0220E030E0D8
S1130D5048E452E40E94D90F882364F18091400250
S1130D60882331F11092400261E08CE192E0D3D605
S1130D7061E086E192E0CFD659DC60E080E392E066
S1130D8069D500E010E027ED33E440E050E068EC82
S1130D9072E485E392E09FD5609328027093290260
S1130DA080932A0290932B0281E080933D0204C039
S1130DB0000002C010923D0280910E02882371F05F
S1130DC08091440290914502883592405CF11092E2
S1130DD04602109245021092440224C080914402BB
S1130DE0909145028C3D954034F010924602109249
S1130DF045021092440260912C0270912D02809160
S1130E002E0290912F022091060230910702409108
S1130E100802509109020E94D90F88231CF081E036
S1130E2080930E026599A4C0809111028111A0C023
S1130E3096C0109211021C99A3C0809114028111D2
S1130E409FC099C02DEC3CEC4CEC5DE36091240216
S1130E50709125028091260290912702F7D66B01AA
S1130E607C012DEC3CEC44E152E40E94D90F882330
S1130E704CF4C0922402D0922502E0922602F09211
S1130E8027020CC08DEC9CECA4E1B2E48093240214
S1130E9090932502A0932602B093270281E08093C9
S1130EA0140202C0109214028091000185FD6BC0EF
S1130EB080911202811167C06BC02DEC3CEC4CECAC
S1130EC05DE3609124027091250280912602909145
S1130ED02702BBD66B017C0120E030E040E052E405
S1130EE019D718164CF4C0922402D0922502E0922D
S1130EF02602F09227020CC080E090E0A0E0B2E469
S1130F008093240290932502A0932602B093270293
S1130F1081E08093120202C01092120280910001BB
S1130F2086FD44C080911302811140C036C0809177
S1130F30240290912502A0912602B0912702809369
S1130F40060290930702A0930802B0930902FEDD03
S1130F5081E0809313022EC0109213022BC08CE305
S1130F6092E007D381E0809310028093110263CF53
S1130F7065995FCF60CF80910F02811163CF8ECFCF
S1130F801C9990CF91CF8091000185FDC5CFC6CF2C
S1130F9080910F02811191CFBBCF90910F0281E01C
S1130FA0892780930F028111D3CFC1CF8091000193
S1130FB086FDD2CF1F910F91FF90EF90DF90CF90DD
S1130FC0089527D6C1D88CE192E0C4D586E192E099
S1130FD0C1D5B6DC2FEF83ED90E3215080409040E3
S1130FE0E1F700C00000DDDC2FEF87EA91E6215035
S1130FF080409040E1F700C0000078990DC0A6DD64
S11310002FEF89E698E1215080409040E1F700C03D
S11310100000F8DC789BF3CF99DD8CE192E09AD55F
S113102086E192E097D561E080E392E013D460E03A
S113103085E392E00FD400E010E027ED33E440E0D4
S113104050E068EC72E480E392E045D460932C02B3
S113105070932D0280932E0290932F0200E010E0F3
S113106027ED33E440E050E068EC72E485E392E07D
S113107032D4609328027093290280932A029093B9
S11310802B0260912C0270912D0280912E0290917E
S11310902F0220E030E0A9013DD618167CF46091BF
S11310A02C0270912D0280912E0290912F0220E04B
S11310B030E048E452E47DD788234CF1809140022B
S11310C0882319F11092400261E08CE192E023D56B
S11310D061E086E192E01FD5A9DA61E080E392E065
S11310E0B9D300E010E027ED33E440E050E068ECD1
S11310F072E480E392E0EFD360932C0270932D02AC
S113110080932E0290932F02BCCF0000BACF60913F
S113111028027091290280912A0290912B0220E0EA
S113112030E0A901F7D518167CF46091280270917B
S1131130290280912A0290912B0220E030E048E4B9
S113114052E437D788234CF180914002882319F167
S11311501092400261E08CE192E0DDD461E086E12E
S113116092E0D9D463DA60E085E392E073D300E0DF
S113117010E027ED33E440E050E068EC72E485E3EE
S113118092E0A9D3609328027093290280932A02E3
S113119090932B02BCCF0000BACFF12CC1E0809118
S11311A00A02811175C040E050E065E070E085E11D
S11311B092E0F8D140E050E063E070E085E192E035
S11311C0F1D180914002882309F460C0FC2610927A
S11311D040026C2F80E392E03DD300E010E027ED65
S11311E033E440E050E068EC72E480E392E073D3CF
S11311F060932C0270932D0280932E0290932F0201
S11312006C2F8CE192E087D46C2F86E192E083D43A
S113121082DAFF2021F086E192E09CD409C060913B
S11312202C0270912D0280912E0290912F02AED942
S113123060912C0270912D0280912E0290912F02C8
S11312408090020290900302A0900402B0900502E4
S1131250A5019401AED688233CF08CE392E081D1C1
S1131260C0930A021BDC9BCF20912C0230912D02EB
S113127040912E0250912F02C501B4019AD618163E
S11312800CF08DCF8CE392E06AD189CF000087CF38
S11312908CE192E05FD486E192E05CD42FEF81EEA2
S11312A094E0215080409040E1F700C00000C0E08D
S11312B07EDC80913E0290913D02811102C099230F
S11312C0A1F075DC40E050E064E070E085E192E07C
S11312D069D18CE392E045D1E1DB80913E029091AB
S11312E03D028111EECF9111ECCF80913E0281112C
S11312F005C080913D02882309F402C18091400217
S1131300882309F4FBC060E085E392E0A3D261E0A6
S113131080E392E09FD200E010E027ED33E440E068
S113132050E068EC72E480E392E0D5D260932C0242
S113133070932D0280932E0290932F0200E010E010
S113134027ED33E440E050E068EC72E485E392E09A
S1131350C2D2609328027093290280932A02909348
S11313602B0261E08CE192E0D6D361E086E192E069
S1131370D2D380913B02882309F4CAC090913A02E7
S113138081E0892780933A02882321F08CE392E05C
S1131390EAD003C08CE392E0ECD080910F02882362
S11313A091F081E0C82751F06091240270912502E8
S11313B08091260290912702E9D803C086E192E049
S11313C0C9D372D938C080913B028823D1F02091CF
S11313D02C0230912D0240912E0250912F026091E7
S11313E028027091290280912A0290912B02E090A8
S11313F00602F090070200910802109109026EDAC9
S11314001AC020912C0230912D0240912E0250914D
S11314102F02609128027091290280912A029091F2
S11314202B02E0900602F09007020091080210914E
S113143009020E946701C0900602D0900702E09062
S11314400802F090090280902C0290902D02A09046
S11314502E02B0902F022DEC3CEC4CE45EE3C7016D
S1131460B601F3D3A501940155D418165CF040E0FD
S113147050E064E070E085E192E094D08CE392E087
S113148070D01EC080902C0290902D02A0902E024D
S1131490B0902F022AE939E949E95EE3C701B601B0
S11314A0D4D3A501940185D5882354F041E050E0BC
S11314B064E070E085E192E075D08CE392E04FD077
S11314C0609128027091290280912A0290912B0246
S11314D020E030E04CE152E46CD5882364F08CE3E6
S11314E092E03FD040E050E064E070E085E192E0BB
S11314F059D0D4DABCD910924002DACE0000D8CE4A
S113150040E050E065E070E085E192E04BD0F6CE3B
S113151080910F02811145CF74CF80910602909182
S11315200702A0910802B0910902809324029093CB
S11315302502A0932602B093270210921D02109256
S11315401C0210921702109216020895259AE1E0E7
S1131550F1E08081806180832D98809808952D9A90
S113156008952D980895E2E0F1E080818061808300
S11315700895E2E0F1E080818F7E80830895EAE0BF
S1131580F1E08081826080838081806280838081B9
S1131590886080836B9AE1E0F1E0808188608083D9
S11315A09D9A08956230710509F441C03CF46115B7
S11315B0710569F061307105C1F0089564307105F9
S11315C041F10CF442C065307105E9F00895452BF2
S11315D031F0EBE0F1E08081826080830895EBE0FC
S11315E0F1E080818D7F80830895452B31F0EBE01D
S11315F0F1E08081806280830895EBE0F1E08081F6
S11316008F7D80830895452B11F0739A0895739804
S11316100895452B31F0E2E0F1E080818860808319
S11316200895E2E0F1E08081877F80830895452B6F
S113163031F0EBE0F1E08081886080830895EBE095
S1131640F1E08081877F80830895452B11F0A59A6E
S11316500895A59808956EBD0DB407FEFDCF8EB50F
S11316600895EF92FF920F931F93CF93DF937C0122
S1131670EA01122FFC018081882319F0813051F096
S113168011C0EBE0F1E080818E7F808380818460F3
S1131690808308C0EBE0F1E080818B7F80838081D0
S11316A0816080836F77C701D6DF0FEF010F1123AD
S11316B061F010E00F5F1F4F0C0F1D1F6FEFC7018C
S11316C0CADF8993C017D107C9F7F701808188233E
S11316D019F0813039F00BC0EBE0F1E080818160DA
S11316E0808305C0EBE0F1E0808184608083DF913A
S11316F0CF911F910F91FF90EF900895CF93DF93B7
S11317001F92CDB7DEB7198221E0AE014F5F5F4F64
S1131710A8DF89810F90DF91CF910895CF93DF9354
S11317201F921F92CDB7DEB719821A8222E0AE0152
S11317304F5F5F4F96DF898190E0982F88272A8139
S1131740822B0F900F90DF91CF9108951F93CF9329
S1131750DF93EC01142F8881882319F0813051F034
S113176011C0EBE0F1E080818E7F80838081846012
S1131770808308C0EBE0F1E080818B7F80838081EF
S1131780816080836068CE0166DF612FCE0163DFF4
S11317908881882319F0813039F00BC0EBE0F1E047
S11317A080818160808305C0EBE0F1E0808184600A
S11317B08083DF91CF911F910895CF93DF93EC0144
S11317C060E09CDF837D482F426060E0CE01BEDF95
S11317D0DF91CF9108951F93CF93DF93EC01162FE0
S11317E060E08CDF112319F0482F406802C0482FB5
S11317F04F7760E0CE01AADFDF91CF911F9108956A
S11318001F93CF93DF93EC01162F60E077DF112352
S113181019F0482F406402C0482F4F7B60E0CE018E
S113182095DFDF91CF911F9108951F93CF93DF939D
S1131830EC01162F60E062DF113019F4482F40618B
S113184002C0482F4F7E60E0CE0180DFDF91CF9150
S11318501F9108951F93CF93DF93EC01162FE8E0B7
S1131860F1E08081806C80839ED185E58CBD1883F6
S113187061E0CE01DADF60E0CE01ADDF60E0CE01F1
S1131880BFDFCE019ADF81E0DF91CF911F910895F0
S1131890CF93DF93EC0191DF61E0CE019CDF83EC19
S11318A099E00197F1F700C0000060E0CE0126DF67
S11318B0482F406260E0CE0149DF89E79FE301974A
S11318C0F1F700C0000061E0CE0128DF969587950E
S11318D0DF91CF9108954F925F926F927F928F9292
S11318E09F92AF92BF92CF92DF92EF92FF920F93AB
S11318F01F93CF93DF936A017B0148015901C8DF2D
S1131900BC0180E090E0A3D220E030E040E058E366
S113191054D3A501940151D34B015C01A701960155
S11319206FE775E08BE196EBF9D12B013C01A50142
S11319309401C301B20141D326E133E843E957E3FB
S113194085D1A2D322E331E140E85BE37ED12FE7E6
S113195035E04BE955EBE2D1062F172FD82FC92FCD
S113196020E030E0A90125D388230CF060C0A70152
S11319709601C501B401D2D120E030E048EC52E434
S11319801CD36B017C012BE532E44EE050E415D30B
S11319902FE135E042E753E458D12B013C01A70184
S11319A09601C701B60109D34B015C0124E338E772
S11319B049E25BE302D3A301920148D12B013C012C
S11319C0A5019401C701B601F8D24B015C0126E0E0
S11319D03FEE41EA56E3F1D29B01AC01C301B201EF
S11319E034D12B013C01A5019401C701B601E5D214
S11319F04B015C0123E137E142EF52E3DED29B016C
S1131A00AC01C301B20121D12B013C01A501940118
S1131A10C701B601D2D22BE339E947E25FE2CDD266
S1131A20A301920113D1062F172FD82FC92F602F8E
S1131A30712F8D2F9C2FDF91CF911F910F91FF90CC
S1131A40EF90DF90CF90BF90AF909F908F907F905A
S1131A506F905F904F9008958CB582658CBD8CB566
S1131A608A7F8CBD84B1866084B9209A289AE7E085
S1131A70F1E08081806C8083E8E0F1E0808180681F
S1131A80808380818064808308958EBD10923F029C
S1131A900DB407FC04C080913F028230C8F308955E
S1131AA0FC017183608353834283358324830895C7
S1131AB01F93CF93DF93EC01142F288139812115D3
S1131AC0310521F02130310539F00BC0E8E0F1E0B7
S1131AD080818F77808305C0E8E0F1E080818F7B8F
S1131AE08083862FD2DF812FD0DF88819981009770
S1131AF019F0019739F00BC0E8E0F1E080818068CB
S1131B00808305C0E8E0F1E0808180648083DF9118
S1131B10CF911F910895CF93DF93EC01613011F4BD
S1131B209BDF15C099DF4FEF69E0CE01C1DF40E0D4
S1131B306FE0CE01BDDF47E06BE0CE01B9DF4FEFD0
S1131B406AE0CE01B5DF41E06CE0CE01B1DFDF91A8
S1131B50CF910895CF93DF93EC0140E069E0A8DFD3
S1131B6040E061E0CE01A4DF40E062E0CE01A0DF0E
S1131B7040E063E0CE019CDF40E064E0CE0198DF0A
S1131B8040E065E0CE0194DF40E066E0CE0190DF06
S1131B9040E067E0CE018CDF40E068E0CE0188DF02
S1131BA0DF91CF910895209A8CB580618CBD8CB55E
S1131BB080648CBD8CB58C7F8CBD219A229AEAE01E
S1131BC0F1E0808185608083EBE0F1E080818560D5
S1131BD080830895FC01718360830895EFE6F0E04B
S1131BE08081826080830895072E000C880B990BF6
S1131BF030D120E030E04AE751E4DFD1F7D07093F0
S1131C00890060938800E1E8F0E08081856080834A
S1131C1008951092C50087E68093C40088E98093F4
S1131C20C10086E08093C20008951F920F920FB600
S1131C300F9211248F938091C600809347028F9155
S1131C400F900FBE0F901F9018955058BB27AA27CE
S1131C500ED075C166D130F06BD120F031F49F3FC6
S1131C6011F41EF45BC10EF4E095E7FB51C1E92FBA
S1131C7077D180F3BA17620773078407950718F0C2
S1131C8071F49EF58FC10EF4E0950B2EBA2FA02DA2
S1131C900B01B90190010C01CA01A0011124FF2715
S1131CA0591B99F0593F50F4503E68F11A16F04010
S1131CB0A22F232F342F4427585FF3CF469537950F
S1131CC02795A795F0405395C9F77EF41F16BA0BD4
S1131CD0620B730B840BBAF09150A1F0FF0FBB1F82
S1131CE0661F771F881FC2F70EC0BA0F621F731FCB
S1131CF0841F48F4879577956795B795F7959E3F28
S1131D0008F0B3CF9395880F08F09927EE0F9795B5
S1131D1087950895D9D008F481E008950CD00FC1B7
S1131D2007D140F0FED030F021F45F3F19F0F0C04D
S1131D30511139C1F3C014D198F39923C9F3552330
S1131D40B1F3951B550BBB27AA27621773078407AA
S1131D5038F09F5F5F4F220F331F441FAA1FA9F360
S1131D6033D00E2E3AF0E0E830D091505040E69552
S1131D70001CCAF729D0FE2F27D0660F771F881FB3
S1131D80BB1F261737074807AB07B0E809F0BB0BA2
S1131D90802DBF01FF2793585F4F2AF09E3F5105C6
S1131DA068F0B6C000C15F3FECF3983EDCF3869563
S1131DB077956795B795F7959F5FC9F7880F911D3C
S1131DC09695879597F90895E1E0660F771F881F28
S1131DD0BB1F621773078407BA0720F0621B730BDB
S1131DE0840BBA0BEE1F88F7E095089504D068942D
S1131DF0B111D9C00895BCD088F09F5790F0B92F85
S1131E009927B751A0F0D1F0660F771F881F991F4B
S1131E101AF0BA95C9F712C0B13081F0C3D0B1E05D
S1131E200895C0C0672F782F8827B85F39F0B93F6D
S1131E30CCF3869577956795B395D9F73EF490954D
S1131E408095709561957F4F8F4F9F4F0895E894CB
S1131E5009C097FB3EF490958095709561957F4FEE
S1131E608F4F9F4F9923A9F0F92F96E9BB2793959C
S1131E70F695879577956795B795F111F8CFFAF4AC
S1131E80BB0F11F460FF1BC06F5F7F4F8F4F9F4FDD
S1131E9016C0882311F096E911C0772321F09EE83B
S1131EA0872F762F05C0662371F096E8862F70E0A1
S1131EB060E02AF09A95660F771F881FDAF7880F7B
S1131EC09695879597F90895990F0008550FAA0BD1
S1131ED0E0E8FEEF16161706E807F907C0F0121639
S1131EE01306E407F50798F0621B730B840B950B3C
S1131EF039F40A2661F0232B242B252B21F4089591
S1131F000A2609F4A140A6958FEF811D811D08952D
S1131F1097F99F6780E870E060E008959FEF80EC98
S1131F20089500240A94161617061806090608953B
S1131F3000240A9412161306140605060895092EA1
S1131F400394000C11F4882352F0BB0F40F4BF2B10
S1131F5011F460FF04C06F5F7F4F8F4F9F4F089550
S1131F6057FD9058440F551F59F05F3F71F0479546
S1131F70880F97FB991F61F09F3F79F0879508952B
S1131F80121613061406551FF2CF4695F1DF08C04A
S1131F90161617061806991FF1CF86957105610567
S1131FA008940895E894BB2766277727CB0197F90F
S1131FB008958ADF08F48FEF08950BD0C0CFB1DF06
S1131FC028F0B6DF18F0952309F0A2CFA7CF11248B
S1131FD0EACFC6DFA0F3959FD1F3950F50E0551FCC
S1131FE0629FF001729FBB27F00DB11D639FAA276A
S1131FF0F00DB11DAA1F649F6627B00DA11D661FB9
S1132000829F2227B00DA11D621F739FB00DA11DD9
S1132010621F839FA00D611D221F749F3327A00D93
S1132020611D231F849F600D211D822F762F6A2F2F
S113203011249F5750408AF0E1F088234AF0EE0FB4
S1132040FF1FBB1F661F771F881F91505040A9F7C1
S11320509E3F510570F05CCFA6CF5F3FECF3983EF6
S1132060DCF3869577956795B795F795E7959F5F28
S1132070C1F7FE2B880F911D9695879597F90895C2
S113208011F40EF44BCF3EC073DFD0F39923D9F390
S1132090CEF39F57550B87FF43D00024A0E640EAB8
S11320A0900180585695979528F4805C660F771FA9
S11320B0881F20F026173707480730F4621B730B7C
S11320C0840B202931294A2BA6951794079420259F
S11320D031254A2758F7660F771F881F20F02617E7
S11320E03707480730F4620B730B840B200D311D46
S11320F0411DA09581F7B901842F9158880F9695B9
S1132100879508959F3F31F0915020F487957795F6
S11321106795B795880F911D9695879597F90895BA
S113212091505040660F771F881FD2F7089597FB90
S1132130072E16F4009406D077FD08D00BD007FCC8
S113214005D03EF4909581959F4F089570956195C3
S11321507F4F0895AA1BBB1B51E107C0AA1FBB1FD9
S1132160A617B70710F0A61BB70B881F991F5A951F
S1132170A9F780959095BC01CD010895EE0FFF1F3E
S1132180881F8BBF0790F691E02D1994F894FFCF28
S10D219002000000F04100001242BA
S9030000FC
