S0150000426162795761726D6572556E6F2E73726563F1
S113000072C00000A0C000009EC000009CC00000A0
S11300109AC0000098C0000096C0000094C0000080
S113002092C0000090C000008EC000008CC0000090
S11300308AC0000088C0000086C0000084C00000A0
S113004082C0000001C100007EC000007CC000002E
S11300507AC0000078C0000076C0000074C00000C0
S113006072C000000C94600C6EC000006CC00000F4
S11300706AC0000068C0000066C0000064C00000E0
S113008062C0000060C000005EC000005CC00000F0
S11300905AC0000058C0000056C0000054C0000000
S11300A052C0000050C000004EC000004CC0000010
S11300B04AC0000048C0000046C0000044C0000020
S11300C042C0000040C000003EC000003CC0000030
S11300D03AC0000038C0000036C0000034C0000040
S11300E032C00000D80811241FBECFEFD1E2DEBF1A
S11300F0CDBF00E00CBF12E0A0E0B2E0E6E2FEE11A
S113010000E00BBF02C007900D92AA30B107D9F7E7
S113011022E0AAE0B2E001C01D92A634B207E1F7E2
S113012010E0C3E7D0E000E006C021970109802F6A
S1130130FE010E94090FC237D10780E00807A9F722
S1130140FCD50C94110F5CCF78948CE392E00E9460
S1130150F10885E192E00E940A0961E070E08FE312
S113016092E00E94350C8FE392E00E94390C68EC17
S113017070E08FE392E00E943F0C24E030E044E022
S113018050E060E070E08CE192E00E949B0B8FE312
S11301909CE90197F1F700C0000024E030E044E05E
S11301A050E061E070E086E192E00E949B0B8FE3F7
S11301B09CE90197F1F700C0000060E08CE192E057
S11301C00E94D60B8FE39CE90197F1F700C0000071
S11301D060E086E192E00E94D60B8FE39CE90197F0
S11301E0F1F700C0000060E08CE192E00E94D60BC1
S11301F08FE39CE90197F1F700C0000060E086E11D
S113020092E00E94D60B8FE39CE90197F1F700C0BE
S113021000008CE192E00E94F50B9FEF26E781E05D
S1130220915020408040E1F700C0000086E192E058
S11302300E94F50B9FEF26E781E09150204080401B
S1130240E1F700C0000008951F920F920FB60F92BD
S113025011242F933F938F939F93109285001092B4
S1130260840080913D028F5F80933D02809144021F
S1130270882349F080914202909143020196909321
S113028043028093420280912202909123020196BC
S11302909093230280932202209122023091230220
S11302A08091000290910102281739073CF081E007
S11302B080933E0210922302109222029F918F910A
S11302C03F912F910F900FBE0F901F9018954F9252
S11302D05F926F927F928F929F92AF92BF92CF92D2
S11302E0DF92EF92FF920F931F93CF93DF932B0133
S11302F03C0149015A016701780143EF69E08CE14F
S113030092E00E94A30B40E063E08CE192E00E9443
S1130310A30B20E030E040E251E4C301B2010E94AB
S1130320D90C0E94460D462F68E08CE192E00E94B1
S1130330A30BC301B2010E94410DCAE0D0E0CB017E
S1130340BE010E94E20E482F406866E08CE192E014
S11303500E94A30B20E030E040E251E4C301B2016B
S11303600E94280E0E94410DCB01BE010E94E20EA4
S1130370482F62E08CE192E00E94A30B40E064E02D
S11303808CE192E00E94A30B20E030E040E251E4D3
S1130390C501B4010E94D90C0E94460D462F67E0A6
S11303A08CE192E00E94A30BC501B4010E94410DAF
S11303B0CB01BE010E94E20E482F406865E08CE14B
S11303C092E00E94A30B20E030E040E251E4C5013A
S11303D0B4010E94280E0E94410DCB01BE010E946F
S11303E0E20E482F61E08CE192E00E94A30B42EA06
S11303F069E086E192E00E94A30B40E064E086E1BC
S113040092E00E94A30B20E030E040E251E4C701F7
S1130410B6010E94D90C0E94460D462F66E086E183
S113042092E00E94A30BC701B6010E94410DCB01CB
S1130430BE010E94E20E482F406868E086E192E027
S11304400E94A30B20E030E040E251E4C701B60172
S11304500E94280E0E94410DCB01BE010E94E20EB3
S1130460482F62E086E192E00E94A30BDF91CF91D6
S11304701F910F91FF90EF90DF90CF90BF90AF90BE
S11304809F908F907F906F905F904F9008956091B0
S11304902C0270912D0280912E0290912F022DEC4E
S11304A03CEC44E152E40E94240E1816ACF4109281
S11304B00D0281E080930C0210922802109229020E
S11304C010922A0210922B0241E050E060E070E0AA
S11304D085E192E0B2C6089560912C0270912D02DC
S11304E080912E0290912F0220E030E042E152E40C
S11304F00E94D50C882344F481E080930D0210926D
S11305000C0210920B020895609128027091290246
S113051080912A0290912B0220E030E04CE152E4D9
S11305200E94240E18167CF481E080930B02109232
S11305300C0210920D0241E050E061E070E085E1B0
S113054092E07BC6089510920B0210920C02109256
S11305500D0240E050E061E070E085E192E06DD68C
S113056040E050E060E070E085E192E066C6089506
S1130570CF92DF92EF92FF92CF93DF936B017C01D6
S113058042EA69E086E192E00E94A30B40E064E065
S113059086E192E00E94A30B20E030E040E251E4C7
S11305A0C701B6010E94D90C0E94460D462F66E091
S11305B086E192E00E94A30BC701B6010E94410D9F
S11305C0CAE0D0E0CB01BE010E94E20E482F406891
S11305D068E086E192E00E94A30B20E030E040E274
S11305E051E4C701B6010E94280E0E94410DCB01BF
S11305F0BE010E94E20E482F62E086E192E00E9472
S1130600A30BDF91CF91FF90EF90DF90CF900895EF
S113061040E069E08CE192E00E94A30B4BE563E0CB
S11306208CE192E00E94A30B4FE467E08CE192E03E
S11306300E94A30B45E165E08CE192E00E94A30BCC
S11306404BE561E08CE192E00E94A30B47E464E097
S11306508CE192E00E94A30B47E768E08CE192E012
S11306600E94A30B46E066E08CE192E00E94A30B9B
S11306704EE062E08CE192E00C94A30B089540E01C
S113068069E08CE192E00E94A30B40E063E08CE11E
S113069092E00E94A30B4BE567E08CE192E00E949C
S11306A0A30B4FE465E08CE192E00E94A30B4FE0C2
S11306B061E08CE192E00E94A30B4FE064E08CE1E6
S11306C092E00E94A30B47E668E08CE192E00E946E
S11306D0A30B40E066E08CE192E00E94A30B40E0B3
S11306E062E08CE192E00C94A30B089540E069E091
S11306F08CE192E00E94A30B40E063E08CE192E085
S11307000E94A30B47E667E08CE192E00E94A30BF2
S113071046E465E08CE192E00E94A30B4FE661E0C1
S11307208CE192E00E94A30B47E364E08CE192E049
S11307300E94A30B4FE668E08CE192E00E94A30BB9
S11307404DE766E08CE192E0FED74FE062E08CE199
S113075092E0F9C7089540E069E08CE192E0F3D7B4
S113076047E363E08CE192E0EED746E067E08CE19A
S113077092E0E9D74FE565E08CE192E0E4D747E306
S113078061E08CE192E0DFD74FE064E08CE192E03D
S1130790DAD747E668E08CE192E0D5D740E066E03E
S11307A08CE192E0D0D740E062E08CE192E0CBC7EC
S11307B0089540E069E08CE192E0C5D740E063E051
S11307C08CE192E0C0D740E067E08CE192E0BBD7D7
S11307D04EE065E08CE192E0B6D74EEF61E08CE14B
S11307E092E0B1D74FE064E08CE192E0ACD747E609
S11307F068E08CE192E0A7D740E066E08CE192E00B
S1130800A2D740E062E08CE192E09DC7089540E009
S113081069E08CE192E097D747E363E08CE192E0F2
S113082092D746E067E08CE192E08DD74FE565E032
S11308308CE192E088D747E361E08CE192E083D7D2
S113084047E764E08CE192E07ED746E068E08CE123
S113085092E079D746E466E08CE192E074D740E018
S113086062E08CE192E06FC70895EF92FF920F93DC
S11308701F93E0910C02EE2341F0E0914102EE233C
S113088011F069DF19C023DD17C0E0910D02EE23DA
S113089041F0E0914102EE2311F08BDF0DC017DD32
S11308A00BC0E0910B02EE2339F0E0914102EE23FC
S11308B011F0ADDF01C00BDD9091410281E0892789
S11308C0809341021F910F91FF90EF90089540E0B3
S11308D069E08CE192E037D740E063E08CE192E09C
S11308E032D740E067E08CE192E02DD747E665E03F
S11308F08CE192E028D746E461E08CE192E023D7D2
S113090047E464E08CE192E01ED747E768E08CE1BD
S113091092E019D746E066E08CE192E014D74EE00D
S113092062E08CE192E00FC708958CE392E066D414
S11309302FEF81EE94E0215080409040E1F700C019
S113094000008CE392E060D42FEF81EE94E021501C
S113095080409040E1F700C000008CE392E04ED468
S11309602FEF81EE94E0215080409040E1F700C0E9
S113097000008CE392E048D42FEF85EA9EE02150FA
S113098080409040E1F700C000008CE392E036D450
S11309902FEF81EE94E0215080409040E1F700C0B9
S11309A000008CE392E030D42FEF81EE94E02150EC
S11309B080409040E1F700C000008CE392E01ED438
S11309C02FEF81EE94E0215080409040E1F700C089
S11309D000008CE392E018C408958CE392E00ED4F6
S11309E02FEF81EE94E0215080409040E1F700C069
S11309F000008CE392E008D42FEF81EE94E02150C4
S1130A0080409040E1F700C000008CE392E0F6D310
S1130A102FEF81EE94E0215080409040E1F700C038
S1130A2000008CE392E0F0D32FEF81EE94E02150AC
S1130A3080409040E1F700C0000008958F929F929B
S1130A40AF92BF92CF92DF92EF92FF92CF936091D9
S1130A502C0270912D0280912E0290912F02C09051
S1130A602C02D0902D02E0902E02F0902F02809064
S1130A70280290902902A0902A02B0902B02C1E093
S1130A802DEC3CEC44E152E40E94240E18160CF0C8
S1130A90C0E020E030E042E152E4C701B60185D76E
S1130AA0881F8827881F8C2B71F4C1E020E030E078
S1130AB04CE152E4C501B4010E94240E18160CF056
S1130AC0C0E0CC23C1F0E3DC80914402811126C054
S1130AD081E080933B02809110028823F9F081E049
S1130AE08093440210924302109242021092100228
S1130AF010923B0212C18CE392E086D310923B0227
S1130B0040E050E060E070E085E192E096D310921E
S1130B1044021092430210924202FFC080910E02DE
S1130B20882371F08091420290914302883592406B
S1130B305CF110924402109243021092420224C0CB
S1130B4080914202909143028C3D954034F0109282
S1130B504402109243021092420260912C0270915E
S1130B602D0280912E0290912F0220910602309145
S1130B70070240910802509109020E94240E882322
S1130B801CF081E080930E0265999BC08091110254
S1130B90811197C099C0109211021C999EC0809136
S1130BA0140281119AC09CC02DEC3CEC4CEC5DE32A
S1130BB0609124027091250280912602909127026F
S1130BC090D66B017C012DEC3CEC44E152E40E9494
S1130BD0240E88234CF4C0922402D0922502E09281
S1130BE02602F09227020CC08DEC9CECA4E1B2E446
S1130BF08093240290932502A0932602B0932702A7
S1130C0081E08093140202C01092140280910001CA
S1130C1085FD70C08091120281116CC066C02DECFC
S1130C203CEC4CEC5DE360912402709125028091D0
S1130C3026029091270254D66B017C0120E030E01B
S1130C4042E152E4B2D618164CF4C0922402D09277
S1130C502502E0922602F09227020CC080E090E088
S1130C60A2E1B2E48093240290932502A093260289
S1130C70B093270281E08093120202C01092120204
S1130C808091000186FD3BC080911302811137C021
S1130C903BC08091240290912502A0912602B0913C
S1130CA027028093060290930702A0930802B09350
S1130CB0090293DE81E08093130235C0109213027F
S1130CC032C0659968CF69CF8CE392E09DD281E010
S1130CD0809310028093110260CF1C9995CF96CF18
S1130CE080910F02811160CF8BCF80910F0281110F
S1130CF096CFC0CF8091000185FDC0CFC1CF809138
S1130D00000186FDDBCF0FC090910F0281E089279F
S1130D1080930F028111CECFBCCF80910E02882325
S1130D2009F40ECF31CFCF91FF90EF90DF90CF90A9
S1130D30BF90AF909F908F900895B6D505DA7899BB
S1130D400DC04BDE2FEF89E698E1215080409040A2
S1130D50E1F700C00000BBDD789BF3CF3EDE8CE101
S1130D6092E043D586E192E040D561E080E392E0F1
S1130D70BCD360E085E392E0B8D300E010E027ED57
S1130D8033E440E050E068EC72E480E392E0EED3B8
S1130D9060932C0270932D0280932E0290932F0265
S1130DA000E010E027ED33E440E050E068EC72E44A
S1130DB085E392E0DBD36093280270932902809349
S1130DC02A0290932B0260912C0270912D02809143
S1130DD02E0290912F0220E030E0A901E6D51816EA
S1130DE07CF460912C0270912D0280912E029091DE
S1130DF02F0220E030E048E452E426D788234CF167
S1130E0080913E02882319F110923E0261E08CE148
S1130E1092E0CCD461E086E192E0C8D4F9DB61E0F1
S1130E2080E392E062D300E010E027ED33E440E099
S1130E3050E068EC72E480E392E098D360932C0273
S1130E4070932D0280932E0290932F02BCCF00004A
S1130E50BACF609128027091290280912A02909160
S1130E602B0220E030E0A901A0D518167CF4609193
S1130E7028027091290280912A0290912B0220E08D
S1130E8030E048E452E4E0D688234CF180913E02FD
S1130E90882319F110923E0261E08CE192E086D43D
S1130EA061E086E192E082D4B3DB60E085E392E026
S1130EB01CD300E010E027ED33E440E050E068ECA0
S1130EC072E485E392E052D360932802709329027E
S1130ED080932A0290932B02BCCF0000BACFF12C4E
S1130EE0C1E080910A02811167C080913E0288238B
S1130EF009F460C0FC2610923E026C2F80E392E05D
S1130F00F4D200E010E027ED33E440E050E068EC78
S1130F1072E480E392E02AD360932C0270932D0252
S1130F2080932E0290932F026C2F8CE192E03ED49A
S1130F306C2F86E192E03AD4D9DBFF2021F086E1E0
S1130F4092E053D409C060912C0270912D028091DB
S1130F502E0290912F020CDB60912C0270912D02D5
S1130F6080912E0290912F028090020290900302B1
S1130F70A0900402B0900502A501940165D68823CF
S1130F803CF08CE392E038D1C0930A02CEDCA9CFC6
S1130F9020912C0230912D0240912E0250912F026B
S1130FA0C501B40151D618160CF09BCF8CE392E026
S1130FB021D197CF000095CF8CE192E016D486E141
S1130FC092E013D42FEF81EE94E0215080409040C2
S1130FD0E1F700C00000C0E031DD80913E028823CB
S1130FE009F4DFC060E085E392E07FD261E080E352
S1130FF092E07BD200E010E027ED33E440E050E0E3
S113100068EC72E480E392E0B1D260932C027093B6
S11310102D0280932E0290932F0200E010E027ED22
S113102033E440E050E068EC72E485E392E09ED261
S1131030609328027093290280932A0290932B02D2
S113104061E08CE192E0B2D361E086E192E0AED35C
S113105080913B02882309F4A6C090913A0281E072
S1131060892780933A02882321F08CE392E0C6D04A
S113107003C08CE392E0C8D080910F02882391F0E2
S113108081E0C82751F0609124027091250280917B
S11310902602909127026CDA03C086E192E0A5D380
S11310A0EEDA37C080913B028823D1F020912C02E4
S11310B030912D0240912E0250912F02609128020E
S11310C07091290280912A0290912B02E0900602ED
S11310D0F09007020091080210910902C6DB19C0C2
S11310E020912C0230912D0240912E0250912F021A
S11310F0609128027091290280912A0290912B021A
S1131100E0900602F0900702009108021091090293
S1131110DED8C0900602D0900702E0900802F0905A
S1131120090280902C0290902D02A0902E02B09083
S11311302F022DEC3CEC4CEC5DE3C701B601D0D39F
S1131140A501940132D418165CF040E050E064E04C
S113115070E085E192E071D08CE392E04DD01EC046
S113116080902C0290902D02A0902E02B0902F021D
S11311702DEC3CEC4CE45EE3C701B601B1D3A50110
S1131180940162D5882354F041E050E064E070E0BB
S113119085E192E052D08CE392E02CD010923E0292
S11311A01BCF000019CF80910F02811169CF98CF16
S11311B08091060290910702A0910802B091090261
S11311C08093240290932502A0932602B0932702D1
S11311D010921D0210921C02109217021092160215
S11311E00895259AE1E0F1E08081806180832D9863
S11311F0809808952D9A08952D980895E2E0F1E0DD
S11312008081806180830895E2E0F1E080818F7EB7
S113121080830895EAE0F1E08081826080838081A8
S1131220806280838081886080836B9AE1E0F1E052
S11312308081886080839D9A08956230710509F4E5
S113124041C03CF46115710569F061307105C1F06C
S113125008956430710541F10CF442C065307105A4
S1131260E9F00895452B31F0EBE0F1E080818260F4
S113127080830895EBE0F1E080818D7F8083089581
S1131280452B31F0EBE0F1E08081806280830895AA
S1131290EBE0F1E080818F7D80830895452B11F090
S11312A0739A089573980895452B31F0E2E0F1E0C4
S11312B08081886080830895E2E0F1E08081877F07
S11312C080830895452B31F0EBE0F1E08081886064
S11312D080830895EBE0F1E08081877F8083089527
S11312E0452B11F0A59A0895A59808956EBD0DB4E7
S11312F007FEFDCF8EB50895EF92FF920F931F93D3
S1131300CF93DF937C01EA01122FFC0180818823B3
S113131019F0813051F011C0EBE0F1E080818E7F53
S1131320808380818460808308C0EBE0F1E0808169
S11313308B7F80838081816080836F77C701D6DF54
S11313400FEF010F112361F010E00F5F1F4F0C0F1F
S11313501D1F6FEFC701CADF8993C017D107C9F7F3
S1131360F7018081882319F0813039F00BC0EBE05C
S1131370F1E080818160808305C0EBE0F1E0808151
S113138084608083DF91CF911F910F91FF90EF9044
S11313900895CF93DF931F92CDB7DEB7198221E072
S11313A0AE014F5F5F4FA8DF89810F90DF91CF912E
S11313B00895CF93DF931F921F92CDB7DEB71982A2
S11313C01A8222E0AE014F5F5F4F96DF898190E081
S11313D0982F88272A81822B0F900F90DF91CF912D
S11313E008951F93CF93DF93EC01142F88818823F2
S11313F019F0813051F011C0EBE0F1E080818E7F73
S1131400808380818460808308C0EBE0F1E0808188
S11314108B7F80838081816080836068CE0166DFFA
S1131420612FCE0163DF8881882319F0813039F080
S11314300BC0EBE0F1E080818160808305C0EBE0CC
S1131440F1E0808184608083DF91CF911F910895C2
S1131450CF93DF93EC0160E09CDF837D482F4260F3
S113146060E0CE01BEDFDF91CF9108951F93CF934B
S1131470DF93EC01162F60E08CDF112319F0482F65
S1131480406802C0482F4F7760E0CE01AADFDF91A9
S1131490CF911F9108951F93CF93DF93EC01162FE3
S11314A060E077DF112319F0482F406402C0482F11
S11314B04F7B60E0CE0195DFDF91CF911F910895BE
S11314C01F93CF93DF93EC01162F60E062DF11309E
S11314D019F4482F406102C0482F4F7E60E0CE01CE
S11314E080DFDF91CF911F9108951F93CF93DF93F6
S11314F0EC01162FE8E0F1E08081806C80839ED1BE
S113150085E58CBD188361E0CE01DADF60E0CE01B1
S1131510ADDF60E0CE01BFDFCE019ADF81E0DF9175
S1131520CF911F910895CF93DF93EC0191DF61E098
S1131530CE019CDF83EC99E00197F1F700C0000035
S113154060E0CE0126DF482F406260E0CE0149DF33
S113155089E79FE30197F1F700C0000061E0CE0145
S113156028DF96958795DF91CF9108954F925F92EA
S11315706F927F928F929F92AF92BF92CF92DF929F
S1131580EF92FF920F931F93CF93DF936A017B0136
S113159048015901C8DFBC0180E090E0A3D220E0FB
S11315A030E040E058E354D3A501940151D34B01FA
S11315B05C01A70196016FE775E08BE196EBF9D129
S11315C02B013C01A5019401C301B20141D326E1E1
S11315D033E843E957E385D1A2D322E331E140E87C
S11315E05BE37ED12FE735E04BE955EBE2D1062FE3
S11315F0172FD82FC92F20E030E0A90125D3882345
S11316000CF060C0A7019601C501B401D2D120E05D
S113161030E048EC52E41CD36B017C012BE532E44E
S11316204EE050E415D32FE135E042E753E458D1BE
S11316302B013C01A7019601C701B60109D34B0157
S11316405C0124E338E749E25BE302D3A30192019E
S113165048D12B013C01A5019401C701B601F8D280
S11316604B015C0126E03FEE41EA56E3F1D29B01D7
S1131670AC01C301B20134D12B013C01A501940199
S1131680C701B601E5D24B015C0123E137E142EF2A
S113169052E3DED29B01AC01C301B20121D12B0183
S11316A03C01A5019401C701B601D2D22BE339E96B
S11316B047E25FE2CDD2A301920113D1062F172F87
S11316C0D82FC92F602F712F8D2F9C2FDF91CF9191
S11316D01F910F91FF90EF90DF90CF90BF90AF904C
S11316E09F908F907F906F905F904F9008958CB5EE
S11316F082658CBD8CB58A7F8CBD84B1866084B9CB
S1131700209A289AE7E0F1E08081806C8083E8E009
S1131710F1E0808180688083808180648083089583
S11317208EBD10923D020DB407FC04C080913D02B1
S11317308230C8F30895FC0171836083538342832C
S11317403583248308951F93CF93DF93EC01142FE3
S1131750288139812115310521F02130310539F0F5
S11317600BC0E8E0F1E080818F77808305C0E8E07A
S1131770F1E080818F7B8083862FD2DF812FD0DFC1
S113178088819981009719F0019739F00BC0E8E03E
S1131790F1E080818068808305C0E8E0F1E0808129
S11317A080648083DF91CF911F910895CF93DF935D
S11317B0EC01613011F49BDF15C099DF4FEF69E054
S11317C0CE01C1DF40E06FE0CE01BDDF47E06BE05A
S11317D0CE01B9DF4FEF6AE0CE01B5DF41E06CE046
S11317E0CE01B1DFDF91CF910895CF93DF93EC0168
S11317F040E069E0A8DF40E061E0CE01A4DF40E022
S113180062E0CE01A0DF40E063E0CE019CDF40E077
S113181064E0CE0198DF40E065E0CE0194DF40E073
S113182066E0CE0190DF40E067E0CE018CDF40E06F
S113183068E0CE0188DFDF91CF910895209A8CB5BE
S113184080618CBD8CB580648CBD8CB58C7F8CBD67
S1131850219A229AEAE0F1E0808185608083EBE0BE
S1131860F1E08081856080830895FC017183608349
S11318700895EFE6F0E08081826080830895072E6A
S1131880000C880B990B30D120E030E04AE751E49A
S1131890DFD1F7D07093890060938800E1E8F0E02D
S11318A080818560808308951092C50087E68093C7
S11318B0C40088E98093C10086E08093C200089543
S11318C01F920F920FB60F9211248F938091C6002E
S11318D0809345028F910F900FBE0F901F90189523
S11318E05058BB27AA270ED075C166D130F06BD1F2
S11318F020F031F49F3F11F41EF45BC10EF4E09527
S1131900E7FB51C1E92F77D180F3BA176207730758
S11319108407950718F071F49EF58FC10EF4E095D5
S11319200B2EBA2FA02D0B01B90190010C01CA0195
S1131930A0011124FF27591B99F0593F50F4503E40
S113194068F11A16F040A22F232F342F4427585F32
S1131950F3CF469537952795A795F0405395C9F74A
S11319607EF41F16BA0B620B730B840BBAF0915002
S1131970A1F0FF0FBB1F661F771F881FC2F70EC0A1
S1131980BA0F621F731F841F48F487957795679574
S1131990B795F7959E3F08F0B3CF9395880F08F05D
S11319A09927EE0F979587950895D9D008F481E08B
S11319B008950CD00FC107D140F0FED030F021F4CF
S11319C05F3F19F0F0C0511139C1F3C014D198F33D
S11319D09923C9F35523B1F3951B550BBB27AA27AC
S11319E062177307840738F09F5F5F4F220F331F1E
S11319F0441FAA1FA9F333D00E2E3AF0E0E830D0EA
S1131A0091505040E695001CCAF729D0FE2F27D0EC
S1131A10660F771F881FBB1F261737074807AB07BA
S1131A20B0E809F0BB0B802DBF01FF2793585F4F2F
S1131A302AF09E3F510568F0B6C000C15F3FECF349
S1131A40983EDCF3869577956795B795F7959F5FF4
S1131A50C9F7880F911D9695879597F90895E1E048
S1131A60660F771F881FBB1F621773078407BA07A7
S1131A7020F0621B730B840BBA0BEE1F88F7E09502
S1131A80089504D06894B111D9C00895BCD088F0E9
S1131A909F5790F0B92F9927B751A0F0D1F0660F56
S1131AA0771F881F991F1AF0BA95C9F712C0B13071
S1131AB081F0C3D0B1E00895C0C0672F782F882784
S1131AC0B85F39F0B93FCCF3869577956795B395B0
S1131AD0D9F73EF490958095709561957F4F8F4F1F
S1131AE09F4F0895E89409C097FB3EF49095809524
S1131AF0709561957F4F8F4F9F4F9923A9F0F92FD0
S1131B0096E9BB279395F695879577956795B7954D
S1131B10F111F8CFFAF4BB0F11F460FF1BC06F5F33
S1131B207F4F8F4F9F4F16C0882311F096E911C045
S1131B30772321F09EE8872F762F05C0662371F066
S1131B4096E8862F70E060E02AF09A95660F771F7A
S1131B50881FDAF7880F9695879597F90895990F56
S1131B600008550FAA0BE0E8FEEF16161706E80763
S1131B70F907C0F012161306E407F50798F0621B84
S1131B80730B840B950B39F40A2661F0232B242B59
S1131B90252B21F408950A2609F4A140A6958FEF78
S1131BA0811D811D089597F99F6780E870E060E0CA
S1131BB008959FEF80EC089500240A9416161706E2
S1131BC018060906089500240A941216130614062A
S1131BD005060895092E0394000C11F4882352F08D
S1131BE0BB0F40F4BF2B11F460FF04C06F5F7F4F45
S1131BF08F4F9F4F089557FD9058440F551F59F02C
S1131C005F3F71F04795880F97FB991F61F09F3FE5
S1131C1079F087950895121613061406551FF2CF0E
S1131C204695F1DF08C0161617061806991FF1CF5E
S1131C3086957105610508940895E894BB27662785
S1131C407727CB0197F908958ADF08F48FEF089579
S1131C500BD0C0CFB1DF28F0B6DF18F0952309F020
S1131C60A2CFA7CF1124EACFC6DFA0F3959FD1F36B
S1131C70950F50E0551F629FF001729FBB27F00D36
S1131C80B11D639FAA27F00DB11DAA1F649F66278B
S1131C90B00DA11D661F829F2227B00DA11D621FDA
S1131CA0739FB00DA11D621F839FA00D611D221F94
S1131CB0749F3327A00D611D231F849F600D211D78
S1131CC0822F762F6A2F11249F5750408AF0E1F01B
S1131CD088234AF0EE0FFF1FBB1F661F771F881F64
S1131CE091505040A9F79E3F510570F05CCFA6CFAC
S1131CF05F3FECF3983EDCF3869577956795B7954F
S1131D00F795E7959F5FC1F7FE2B880F911D969578
S1131D10879597F9089511F40EF44BCF3EC073DF05
S1131D20D0F39923D9F3CEF39F57550B87FF43D0B4
S1131D300024A0E640EA900180585695979528F42F
S1131D40805C660F771F881F20F026173707480727
S1131D5030F4621B730B840B202931294A2BA6957E
S1131D6017940794202531254A2758F7660F771FC3
S1131D70881F20F026173707480730F4620B730BCF
S1131D80840B200D311D411DA09581F7B901842FCD
S1131D909158880F9695879508959F3F31F09150FB
S1131DA020F4879577956795B795880F911D96953B
S1131DB0879597F9089591505040660F771F881FB3
S1131DC0D2F7089597FB072E16F4009406D077FDFA
S1131DD008D00BD007FC05D03EF4909581959F4F19
S1131DE00895709561957F4F0895AA1BBB1B51E11F
S1131DF007C0AA1FBB1FA617B70710F0A61BB70B77
S1131E00881F991F5A95A9F780959095BC01CD011B
S1131E100895EE0FFF1F881F8BBF0790F691E02DEA
S1091E201994F894FFCFB1
S10D1E2602000000F0410000124227
S9030000FC
