S0150000426162795761726D6572556E6F2E73726563F1
S113000072C00000A0C000009EC000009CC00000A0
S11300109AC0000098C0000096C0000094C0000080
S113002092C0000090C000008EC000008CC0000090
S11300308AC0000088C0000086C0000084C00000A0
S113004082C00000FFC000007EC000007CC0000031
S11300507AC0000078C0000076C0000074C00000C0
S113006072C000000C94980A6EC000006CC00000BE
S11300706AC0000068C0000066C0000064C00000E0
S113008062C0000060C000005EC000005CC00000F0
S11300905AC0000058C0000056C0000054C0000000
S11300A052C0000050C000004EC000004CC0000010
S11300B04AC0000048C0000046C0000044C0000020
S11300C042C0000040C000003EC000003CC0000030
S11300D03AC0000038C0000036C0000034C0000040
S11300E032C00000110711241FBECFEFD1E2DEBFE2
S11300F0CDBF00E00CBF12E0A0E0B2E0E6E9FAE117
S113010000E00BBF02C007900D92AA30B107D9F7E7
S113011022E0AAE0B2E001C01D92A134B207E1F7E7
S113012010E0C3E7D0E000E006C021970109802F6A
S1130130FE010E94410DC237D10780E00807A9F7EC
S113014068D40C94490D5CCF789488E392E082D60D
S113015081E192E097D661E070E08BE392E00E9447
S11301606D0A8BE392E00E94710A68EC70E08BE305
S113017092E00E94770A24E030E044E050E060E03E
S113018070E088E192E00E94D3098FE39CE9019733
S1130190F1F700C0000024E030E044E050E061E00A
S11301A070E082E192E00E94D3098FE39CE9019719
S11301B0F1F700C0000060E088E192E00E940E0ABE
S11301C08FE39CE90197F1F700C0000060E082E151
S11301D092E00E940E0A8FE39CE90197F1F700C0B8
S11301E0000060E088E192E00E940E0A8FE39CE93F
S11301F00197F1F700C0000060E082E192E00E9404
S11302000E0A8FE39CE90197F1F700C0000088E132
S113021092E00E942D0A9FEF26E781E09150204052
S11302208040E1F700C0000082E192E00E942D0AC4
S11302309FEF26E781E0915020408040E1F700C025
S1130240000008951F920F920FB60F9211242F935E
S11302503F938F939F931092850010928400809116
S113026039028F5F8093390280913F02882349F0DD
S113027080913D0290913E02019690933E028093BC
S11302803D0280911E0290911F02019690931F02DD
S113029080931E0220911E0230911F028091000261
S11302A090910102281739073CF081E080933A02CB
S11302B010921F0210921E029F918F913F912F91D5
S11302C00F900FBE0F901F9018954F925F926F92F0
S11302D07F928F929F92AF92BF92CF92DF92EF92D2
S11302E0FF920F931F93CF93DF932B013C0149019E
S11302F05A016701780143EF69E088E192E00E94C6
S1130300DB0940E063E088E192E00E94DB0920E041
S113031030E040E251E4C301B2010E94110B0E949B
S11303207E0B462F68E088E192E00E94DB09C3015E
S1130330B2010E94790BCAE0D0E0CB01BE010E9459
S11303401A0D482F406866E088E192E00E94DB09BC
S113035020E030E040E251E4C301B2010E94600CAD
S11303600E94790BCB01BE010E941A0D482F62E056
S113037088E192E00E94DB0940E064E088E192E0D9
S11303800E94DB0920E030E040E251E4C501B40101
S11303900E94110B0E947E0B462F67E088E192E0D9
S11303A00E94DB09C501B4010E94790BCB01BE0197
S11303B00E941A0D482F406865E088E192E0FBD75F
S11303C020E030E040E251E4C501B4010E94600C39
S11303D00E94790BCB01BE010E941A0D482F61E0E7
S11303E088E192E0E8D742EA69E082E192E0E3D76B
S11303F040E064E082E192E0DED720E030E040E2D9
S113040051E4C701B6010E94110B0E947E0B462FD6
S113041066E082E192E0CFD7C701B6010E94790B72
S1130420CB01BE010E941A0D482F406868E082E1AA
S113043092E0C1D720E030E040E251E4C701B601C8
S11304400E94600C0E94790BCB01BE010E941A0D20
S1130450482F62E082E192E0AED7DF91CF911F9105
S11304600F91FF90EF90DF90CF90BF90AF909F904F
S11304708F907F906F905F904F900895CF92DF920E
S1130480EF92FF92CF93DF936B017C0142EA69E024
S113049082E192E090D740E064E082E192E08BD781
S11304A020E030E040E251E4C701B6010E94110BA4
S11304B00E947E0B462F66E082E192E07CD7C70162
S11304C0B6010E94790BCAE0D0E0CB01BE010E94C4
S11304D01A0D482F406868E082E192E06CD720E072
S11304E030E040E251E4C701B6010E94600C0E9472
S11304F0790BCB01BE010E941A0D482F62E082E104
S113050092E059D7DF91CF91FF90EF90DF90CF9099
S1130510089540E069E088E192E04DD74BE563E05F
S113052088E192E048D74FE467E088E192E043D75E
S113053045E165E088E192E03ED74BE561E088E182
S113054092E039D747E464E088E192E034D747E7A2
S113055068E088E192E02FD746E066E088E192E027
S11305602AD74EE062E088E192E025C7089540E092
S113057069E088E192E01FD740E063E088E192E01F
S11305801AD74BE567E088E192E015D74FE465E0C0
S113059088E192E010D74FE061E088E192E00BD768
S11305A04FE064E088E192E006D747E668E088E13E
S11305B092E001D740E066E088E192E0FCD640E0BA
S11305C062E088E192E0F7C6089540E069E088E1DE
S11305D092E0F1D640E063E088E192E0ECD647E6B1
S11305E067E088E192E0E7D645E065E088E192E0E3
S11305F0E2D64FE461E088E192E0DDD647E364E0CF
S113060088E192E0D8D64FE468E088E192E0D3D65E
S113061047E766E088E192E0CED64FE062E088E109
S113062092E0C9C6089588E392E020D42FEF81EECA
S113063094E0215080409040E1F700C0000088E33E
S113064092E01AD42FEF81EE94E021508040904044
S1130650E1F700C0000088E392E008D42FEF81EEB8
S113066094E0215080409040E1F700C0000088E30E
S113067092E002D42FEF85EA9EE021508040904022
S1130680E1F700C0000088E392E0F0D32FEF81EEA1
S113069094E0215080409040E1F700C0000088E3DE
S11306A092E0EAD32FEF81EE94E021508040904015
S11306B0E1F700C0000088E392E0D8D32FEF81EE89
S11306C094E0215080409040E1F700C0000088E3AE
S11306D092E0D2C3089588E392E0C8D32FEF81EE6D
S11306E094E0215080409040E1F700C0000088E38E
S11306F092E0C2D32FEF81EE94E0215080409040ED
S1130700E1F700C0000088E392E0B0D32FEF81EE60
S113071094E0215080409040E1F700C0000088E35D
S113072092E0AAD32FEF81EE94E0215080409040D4
S1130730E1F700C0000008958F929F92AF92BF929C
S1130740CF92DF92EF92FF92CF9360912802709143
S1130750290280912A0290912B02C0902802D09005
S11307602902E0902A02F0902B02809024029090BB
S11307702502A0902602B0902702C1E02DEC3CECAB
S113078044E152E40E945C0C18160CF0C0E020E036
S113079030E042E152E4C701B6013FD7881F882701
S11307A0881F8C2B71F4C1E020E030E04CE152E46E
S11307B0C501B4010E945C0C18160CF0C0E0CC23F7
S11307C0B9F080913F02811126C081E08093370205
S11307D080910C028823F9F081E080933F0210920B
S11307E03E0210923D0210920C021092370220C079
S11307F088E392E041D31092370240E050E060E099
S113080070E081E192E051D310923F0210923E02D7
S113081010923D020DC080913D0290913E028835B8
S1130820924034F010923F0210923E0210923D0228
S113083060912402709125028091260290912702F2
S113084020E030E04CE152E40E945C0C181644F4C1
S113085041E050E061E070E081E192E026D307C01E
S113086040E050E060E070E081E192E01ED36599E1
S1130870A4C080910D028111A0C096C010920D02F7
S11308801C999EC08091100281119AC09CC02DECCD
S11308903CEC4CEC5DE3609120027091210280916C
S11308A022029091230255D66B017C012DEC3CEC85
S11308B044E152E40E945C0C88234CF4C092200270
S11308C0D0922102E0922202F09223020CC08DEC1D
S11308D09CECA4E1B2E48093200290932102A093C3
S11308E02202B093230281E08093100202C010928E
S11308F010028091000185FD70C080910E0281116B
S11309006CC066C02DEC3CEC4CEC5DE360912002C5
S113091070912102809122029091230219D66B01D9
S11309207C0120E030E042E152E477D618164CF422
S1130930C0922002D0922102E0922202F09223027D
S11309400CC080E090E0A2E1B2E480932002909396
S11309502102A0932202B093230281E080930E022D
S113096002C010920E028091000186FD44C0809165
S11309700F02811140C036C0809120029091210263
S1130980A0912202B0912302809306029093070261
S1130990A0930802B09309029EDE81E080930F02C7
S11309A02EC010920F022BC088E392E065D281E042
S11309B080930C0280930D0263CF65995FCF60CF63
S11309C01C9995CF96CF80910B02811160CF8BCF6C
S11309D080910B02811196CFC0CF8091000185FDDB
S11309E0C0CFC1CF90910B0281E0892780930B0285
S11309F08111D3CFC1CF8091000186FDD2CFCF9199
S1130A00FF90EF90DF90CF90BF90AF909F908F902A
S1130A10089582D599DB5FDE88E192E01ED582E1FC
S1130A2092E01BD561E08CE292E097D360E081E331
S1130A3092E093D300E010E027ED33E440E050E08F
S1130A4068EC72E48CE292E0C9D36093280270935C
S1130A50290280932A0290932B0200E010E027EDF4
S1130A6033E440E050E068EC72E481E392E0B6D312
S1130A7060932402709325028093260290932702A8
S1130A80609128027091290280912A0290912B0290
S1130A9020E030E0A901C1D518167CF46091280249
S1130AA07091290280912A0290912B0220E030E07B
S1130AB048E452E401D788234CF180913A02882318
S1130AC019F110923A0261E088E192E0A7D461E062
S1130AD082E192E0A3D41DDD61E08CE292E03DD39B
S1130AE000E010E027ED33E440E050E068EC72E40D
S1130AF08CE292E073D3609328027093290280936E
S1130B002A0290932B02BCCF0000BACF609124023A
S1130B1070912502809126029091270220E030E016
S1130B20A9017BD518167CF46091240270912502EA
S1130B30809126029091270220E030E048E452E4BC
S1130B40BBD688234CF180913A02882319F1109284
S1130B503A0261E088E192E061D461E082E192E0EE
S1130B605DD4D7DC60E081E392E0F7D200E010E0EE
S1130B7027ED33E440E050E068EC72E481E392E076
S1130B802DD36093240270932502809326029093C0
S1130B902702BCCF0000BACFF12CC1E080910A0239
S1130BA0811167C080913A02882309F460C0FC2651
S1130BB010923A026C2F8CE292E0CFD200E010E067
S1130BC027ED33E440E050E068EC72E48CE292E01C
S1130BD005D3609328027093290280932A0290938C
S1130BE02B026C2F88E192E019D46C2F82E192E001
S1130BF015D4EBDCFF2021F082E192E02ED409C071
S1130C00609128027091290280912A0290912B020E
S1130C1035DC609128027091290280912A0290911A
S1130C202B028090020290900302A0900402B090E4
S1130C300502A501940140D688233CF088E392E0A4
S1130C4013D1C0930A02EFDCA9CF2091280230917E
S1130C50290240912A0250912B02C501B4012CD6DD
S1130C6018160CF09BCF88E392E0FCD097CF0000DD
S1130C7095CF88E192E0F1D382E192E0EED32FEFB9
S1130C8081EE94E0215080409040E1F700C00000E4
S1130C90C0E052DD80913A02882309F4C0C060E0CC
S1130CA081E392E05AD261E08CE292E056D200E015
S1130CB010E027ED33E440E050E068EC72E48CE2AD
S1130CC092E08CD2609328027093290280932A02C6
S1130CD090932B0200E010E027ED33E440E050E075
S1130CE068EC72E481E392E079D260932402709319
S1130CF02502809326029093270261E088E192E026
S1130D008DD361E082E192E089D380913702882318
S1130D1079F09091360281E0892780933602882306
S1130D2021F088E392E0A2D003C088E392E0A4D04B
S1130D3080910B02882391F081E0C82751F06091E3
S1130D40200270912102809122029091230296DB6D
S1130D5003C082E192E081D30ADC19C02091280209
S1130D603091290240912A0250912B026091240271
S1130D70709125028091260290912702E09006024C
S1130D80F090070200910802109109029EDAC090C7
S1130D900602D0900702E0900802F09009028090C9
S1130DA0280290902902A0902A02B0902B022DECE8
S1130DB03CEC4CEC5DE3C701B601CAD3A501940138
S1130DC02CD418165CF040E050E064E070E081E15F
S1130DD092E06BD088E392E047D01EC08090280256
S1130DE090902902A0902A02B0902B022DEC3CECAA
S1130DF04CE45EE3C701B601ABD3A50194015CD515
S1130E00882354F041E050E064E070E081E192E036
S1130E104CD088E392E026D010923A023ACF0000F8
S1130E2038CF8091060290910702A0910802B091F8
S1130E3009028093200290932102A0932202B0938E
S1130E4023021092190210921802109213021092A7
S1130E5012020895259AE1E0F1E0808180618083A7
S1130E602D9808952D9A08952D980895E2E0F1E0C3
S1130E708081806180830895E2E0F1E080818F7E4B
S1130E8080830895EAE0F1E080818260808380813C
S1130E90806280838081886080836B9AE1E0F1E0E6
S1130EA08081886080839D9A08956230710509F479
S1130EB041C03CF46115710569F061307105C1F000
S1130EC008956430710541F10CF442C06530710538
S1130ED0E9F00895452B31F0EBE0F1E08081826088
S1130EE080830895EBE0F1E080818D7F8083089515
S1130EF0452B31F0EBE0F1E080818062808308953E
S1130F00EBE0F1E080818F7D80830895452B11F023
S1130F10739A089573980895452B31F0E2E0F1E057
S1130F208081886080830895E2E0F1E08081877F9A
S1130F3080830895452B31F0EBE0F1E080818860F7
S1130F4080830895EBE0F1E08081877F80830895BA
S1130F50452B11F0A59A0895A59808956EBD0DB47A
S1130F6007FEFDCF8EB50895EF92FF920F931F9366
S1130F70CF93DF937C01EA01122FFC018081882347
S1130F8019F0813051F011C0EBE0F1E080818E7FE7
S1130F90808380818460808308C0EBE0F1E08081FD
S1130FA08B7F80838081816080836F77C701D6DFE8
S1130FB00FEF010F112361F010E00F5F1F4F0C0FB3
S1130FC01D1F6FEFC701CADF8993C017D107C9F787
S1130FD0F7018081882319F0813039F00BC0EBE0F0
S1130FE0F1E080818160808305C0EBE0F1E08081E5
S1130FF084608083DF91CF911F910F91FF90EF90D8
S11310000895CF93DF931F92CDB7DEB7198221E005
S1131010AE014F5F5F4FA8DF89810F90DF91CF91C1
S11310200895CF93DF931F921F92CDB7DEB7198235
S11310301A8222E0AE014F5F5F4F96DF898190E014
S1131040982F88272A81822B0F900F90DF91CF91C0
S113105008951F93CF93DF93EC01142F8881882385
S113106019F0813051F011C0EBE0F1E080818E7F06
S1131070808380818460808308C0EBE0F1E080811C
S11310808B7F80838081816080836068CE0166DF8E
S1131090612FCE0163DF8881882319F0813039F014
S11310A00BC0EBE0F1E080818160808305C0EBE060
S11310B0F1E0808184608083DF91CF911F91089556
S11310C0CF93DF93EC0160E09CDF837D482F426087
S11310D060E0CE01BEDFDF91CF9108951F93CF93DF
S11310E0DF93EC01162F60E08CDF112319F0482FF9
S11310F0406802C0482F4F7760E0CE01AADFDF913D
S1131100CF911F9108951F93CF93DF93EC01162F76
S113111060E077DF112319F0482F406402C0482FA4
S11311204F7B60E0CE0195DFDF91CF911F91089551
S11311301F93CF93DF93EC01162F60E062DF113031
S113114019F4482F406102C0482F4F7E60E0CE0161
S113115080DFDF91CF911F9108951F93CF93DF9389
S1131160EC01162FE8E0F1E08081806C80839ED151
S113117085E58CBD188361E0CE01DADF60E0CE0145
S1131180ADDF60E0CE01BFDFCE019ADF81E0DF9109
S1131190CF911F910895CF93DF93EC0191DF61E02C
S11311A0CE019CDF83EC99E00197F1F700C00000C9
S11311B060E0CE0126DF482F406260E0CE0149DFC7
S11311C089E79FE30197F1F700C0000061E0CE01D9
S11311D028DF96958795DF91CF9108954F925F927E
S11311E06F927F928F929F92AF92BF92CF92DF9233
S11311F0EF92FF920F931F93CF93DF936A017B01CA
S113120048015901C8DFBC0180E090E0A3D220E08E
S113121030E040E058E354D3A501940151D34B018D
S11312205C01A70196016FE775E08BE196EBF9D1BC
S11312302B013C01A5019401C301B20141D326E174
S113124033E843E957E385D1A2D322E331E140E80F
S11312505BE37ED12FE735E04BE955EBE2D1062F76
S1131260172FD82FC92F20E030E0A90125D38823D8
S11312700CF060C0A7019601C501B401D2D120E0F1
S113128030E048EC52E41CD36B017C012BE532E4E2
S11312904EE050E415D32FE135E042E753E458D152
S11312A02B013C01A7019601C701B60109D34B01EB
S11312B05C0124E338E749E25BE302D3A301920132
S11312C048D12B013C01A5019401C701B601F8D214
S11312D04B015C0126E03FEE41EA56E3F1D29B016B
S11312E0AC01C301B20134D12B013C01A50194012D
S11312F0C701B601E5D24B015C0123E137E142EFBE
S113130052E3DED29B01AC01C301B20121D12B0116
S11313103C01A5019401C701B601D2D22BE339E9FE
S113132047E25FE2CDD2A301920113D1062F172F1A
S1131330D82FC92F602F712F8D2F9C2FDF91CF9124
S11313401F910F91FF90EF90DF90CF90BF90AF90DF
S11313509F908F907F906F905F904F9008958CB581
S113136082658CBD8CB58A7F8CBD84B1866084B95E
S1131370209A289AE7E0F1E08081806C8083E8E09D
S1131380F1E0808180688083808180648083089517
S11313908EBD109239020DB407FC04C0809139024D
S11313A08230C8F30895FC017183608353834283C0
S11313B03583248308951F93CF93DF93EC01142F77
S11313C0288139812115310521F02130310539F089
S11313D00BC0E8E0F1E080818F77808305C0E8E00E
S11313E0F1E080818F7B8083862FD2DF812FD0DF55
S11313F088819981009719F0019739F00BC0E8E0D2
S1131400F1E080818068808305C0E8E0F1E08081BC
S113141080648083DF91CF911F910895CF93DF93F0
S1131420EC01613011F49BDF15C099DF4FEF69E0E7
S1131430CE01C1DF40E06FE0CE01BDDF47E06BE0ED
S1131440CE01B9DF4FEF6AE0CE01B5DF41E06CE0D9
S1131450CE01B1DFDF91CF910895CF93DF93EC01FB
S113146040E069E0A8DF40E061E0CE01A4DF40E0B5
S113147062E0CE01A0DF40E063E0CE019CDF40E00B
S113148064E0CE0198DF40E065E0CE0194DF40E007
S113149066E0CE0190DF40E067E0CE018CDF40E003
S11314A068E0CE0188DFDF91CF910895209A8CB552
S11314B080618CBD8CB580648CBD8CB58C7F8CBDFB
S11314C0219A229AEAE0F1E0808185608083EBE052
S11314D0F1E08081856080830895FC0171836083DD
S11314E00895EFE6F0E08081826080830895072EFE
S11314F0000C880B990B30D120E030E04AE751E42E
S1131500DFD1F7D07093890060938800E1E8F0E0C0
S113151080818560808308951092C50087E680935A
S1131520C40088E98093C10086E08093C2000895D6
S11315301F920F920FB60F9211248F938091C600C1
S1131540809340028F910F900FBE0F901F901895BB
S11315505058BB27AA270ED075C166D130F06BD185
S113156020F031F49F3F11F41EF45BC10EF4E095BA
S1131570E7FB51C1E92F77D180F3BA1762077307EC
S11315808407950718F071F49EF58FC10EF4E09569
S11315900B2EBA2FA02D0B01B90190010C01CA0129
S11315A0A0011124FF27591B99F0593F50F4503ED4
S11315B068F11A16F040A22F232F342F4427585FC6
S11315C0F3CF469537952795A795F0405395C9F7DE
S11315D07EF41F16BA0B620B730B840BBAF0915096
S11315E0A1F0FF0FBB1F661F771F881FC2F70EC035
S11315F0BA0F621F731F841F48F487957795679508
S1131600B795F7959E3F08F0B3CF9395880F08F0F0
S11316109927EE0F979587950895D9D008F481E01E
S113162008950CD00FC107D140F0FED030F021F462
S11316305F3F19F0F0C0511139C1F3C014D198F3D0
S11316409923C9F35523B1F3951B550BBB27AA273F
S113165062177307840738F09F5F5F4F220F331FB1
S1131660441FAA1FA9F333D00E2E3AF0E0E830D07D
S113167091505040E695001CCAF729D0FE2F27D080
S1131680660F771F881FBB1F261737074807AB074E
S1131690B0E809F0BB0B802DBF01FF2793585F4FC3
S11316A02AF09E3F510568F0B6C000C15F3FECF3DD
S11316B0983EDCF3869577956795B795F7959F5F88
S11316C0C9F7880F911D9695879597F90895E1E0DC
S11316D0660F771F881FBB1F621773078407BA073B
S11316E020F0621B730B840BBA0BEE1F88F7E09596
S11316F0089504D06894B111D9C00895BCD088F07D
S11317009F5790F0B92F9927B751A0F0D1F0660FE9
S1131710771F881F991F1AF0BA95C9F712C0B13004
S113172081F0C3D0B1E00895C0C0672F782F882717
S1131730B85F39F0B93FCCF3869577956795B39543
S1131740D9F73EF490958095709561957F4F8F4FB2
S11317509F4F0895E89409C097FB3EF490958095B7
S1131760709561957F4F8F4F9F4F9923A9F0F92F63
S113177096E9BB279395F695879577956795B795E1
S1131780F111F8CFFAF4BB0F11F460FF1BC06F5FC7
S11317907F4F8F4F9F4F16C0882311F096E911C0D9
S11317A0772321F09EE8872F762F05C0662371F0FA
S11317B096E8862F70E060E02AF09A95660F771F0E
S11317C0881FDAF7880F9695879597F90895990FEA
S11317D00008550FAA0BE0E8FEEF16161706E807F7
S11317E0F907C0F012161306E407F50798F0621B18
S11317F0730B840B950B39F40A2661F0232B242BED
S1131800252B21F408950A2609F4A140A6958FEF0B
S1131810811D811D089597F99F6780E870E060E05D
S113182008959FEF80EC089500240A941616170675
S113183018060906089500240A94121613061406BD
S113184005060895092E0394000C11F4882352F020
S1131850BB0F40F4BF2B11F460FF04C06F5F7F4FD8
S11318608F4F9F4F089557FD9058440F551F59F0BF
S11318705F3F71F04795880F97FB991F61F09F3F79
S113188079F087950895121613061406551FF2CFA2
S11318904695F1DF08C0161617061806991FF1CFF2
S11318A086957105610508940895E894BB27662719
S11318B07727CB0197F908958ADF08F48FEF08950D
S11318C00BD0C0CFB1DF28F0B6DF18F0952309F0B4
S11318D0A2CFA7CF1124EACFC6DFA0F3959FD1F3FF
S11318E0950F50E0551F629FF001729FBB27F00DCA
S11318F0B11D639FAA27F00DB11DAA1F649F66271F
S1131900B00DA11D661F829F2227B00DA11D621F6D
S1131910739FB00DA11D621F839FA00D611D221F27
S1131920749F3327A00D611D231F849F600D211D0B
S1131930822F762F6A2F11249F5750408AF0E1F0AE
S113194088234AF0EE0FFF1FBB1F661F771F881FF7
S113195091505040A9F79E3F510570F05CCFA6CF3F
S11319605F3FECF3983EDCF3869577956795B795E2
S1131970F795E7959F5FC1F7FE2B880F911D96950C
S1131980879597F9089511F40EF44BCF3EC073DF99
S1131990D0F39923D9F3CEF39F57550B87FF43D048
S11319A00024A0E640EA900180585695979528F4C3
S11319B0805C660F771F881F20F0261737074807BB
S11319C030F4621B730B840B202931294A2BA69512
S11319D017940794202531254A2758F7660F771F57
S11319E0881F20F026173707480730F4620B730B63
S11319F0840B200D311D411DA09581F7B901842F61
S1131A009158880F9695879508959F3F31F091508E
S1131A1020F4879577956795B795880F911D9695CE
S1131A20879597F9089591505040660F771F881F46
S1131A30D2F7089597FB072E16F4009406D077FD8D
S1131A4008D00BD007FC05D03EF4909581959F4FAC
S1131A500895709561957F4F0895AA1BBB1B51E1B2
S1131A6007C0AA1FBB1FA617B70710F0A61BB70B0A
S1131A70881F991F5A95A9F780959095BC01CD01AF
S1131A800895EE0FFF1F881F8BBF0790F691E02D7E
S1091A901994F894FFCF45
S10D1A9602000000F04100001242BB
S9030000FC
