:1000000072C00000A0C000009EC000009CC00000A4
:100010009AC0000098C0000096C0000094C0000084
:1000200092C0000090C000008EC000008CC0000094
:100030008AC0000088C0000086C0000084C00000A4
:1000400082C00000E3C000007EC000007CC0000051
:100050007AC0000078C0000076C0000074C00000C4
:1000600072C000000C94FB086EC000006CC0000061
:100070006AC0000068C0000066C0000064C00000E4
:1000800062C0000060C000005EC000005CC00000F4
:100090005AC0000058C0000056C0000054C0000004
:1000A00052C0000050C000004EC000004CC0000014
:1000B0004AC0000048C0000046C0000044C0000024
:1000C00042C0000040C000003EC000003CC0000034
:1000D0003AC0000038C0000036C0000034C0000044
:1000E00032C000007B0511241FBECFEFD1E2DEBF7E
:1000F000CDBF00E00CBF12E0A0E0B2E0ECE5F7E11C
:1001000000E00BBF02C007900D92A031B107D9F7F4
:1001100022E0A0E1B2E001C01D92A634B207E1F7EF
:1001200010E0C3E7D0E000E006C021970109802F6E
:10013000FE010E94A40BC237D10780E00807A9F78F
:1001400097D30C94AC0B5CCF78948EE392E0ECD414
:1001500087E192E001D561E070E080E492E00E94E6
:10016000BA0880E492E00E94BE0868EC70E080E487
:1001700092E00E94C40824E030E044E050E060E0F7
:1001800070E08EE192E073D78FE39CE90197F1F77D
:1001900000C0000024E030E044E050E061E070E0A6
:1001A00088E192E064D78FE39CE90197F1F700C002
:1001B000000060E08EE192E095D78FE39CE9019723
:1001C000F1F700C0000060E088E192E08BD78FE398
:1001D0009CE90197F1F700C000008EE192E0A1D701
:1001E0009FEF26E781E0915020408040E1F700C07A
:1001F000000088E192E095D79FEF26E781E09150DB
:1002000020408040E1F700C0000008951F920F9247
:100210000FB60F9211242F933F938F939F931092B9
:1002200085001092840080914402882349F08091D7
:1002300042029091430201969093430280934202BE
:10024000809124029091250201969093250280933B
:100250002402209124023091250280910002909185
:100260000102281739073CF081E080933F02109289
:100270002502109224029F918F913F912F910F9010
:100280000FBE0F901F9018954F925F926F927F92C2
:100290008F929F92AF92BF92CF92DF92EF92FF9296
:1002A0000F931F93CF93DF932B013C0149015A0118
:1002B000670178014FEF69E08EE192E0E0D620E03F
:1002C00030E040E251E4C301B2010E9474090E948F
:1002D000E109462F68E08EE192E0D1D6C301B20178
:1002E0000E94DC09CAE0D0E0CB01BE010E947D0B78
:1002F000482F406866E08EE192E0C1D620E030E011
:1003000040E251E4C301B2010E94C30A0E94DC0929
:10031000CB01BE010E947D0B482F62E08EE192E08E
:10032000AED620E030E040E251E4C501B401DCD7B4
:100330000E94E109462F67E08EE192E0A0D6C50158
:10034000B4010E94DC09CB01BE010E947D0B482F45
:10035000406865E08EE192E092D620E030E040E235
:1003600051E4C501B4010E94C30A0E94DC09CB011B
:10037000BE010E947D0B482F61E08EE192E07FD6A6
:100380004FEF69E088E192E07AD620E030E040E289
:1003900051E4C701B601A8D70E94E109462F66E0E3
:1003A00088E192E06CD6C701B6010E94DC09CB015E
:1003B000BE010E947D0B482F406868E088E192E012
:1003C0005ED620E030E040E251E4C701B6010E9471
:1003D000C30AF2D7CB01BE010E947D0B482F62E019
:1003E00088E192E04CD6DF91CF911F910F91FF9061
:1003F000EF90DF90CF90BF90AF909F908F907F90C5
:100400006F905F904F900895CF92DF92EF92FF929E
:10041000CF93DF936B017C014FEF69E088E192E0BD
:100420002ED620E030E040E251E4C701B6015CD7AF
:10043000C8D7462F66E088E192E021D6C701B60111
:10044000BBD7CAE0D0E0CB01BE010E947D0B482F94
:10045000406868E088E192E012D620E030E040E2B7
:1004600051E4C701B6010E94C30AA6D7CB01BE0161
:100470000E947D0B482F62E088E192E000D6DF9178
:10048000CF91FF90EF90DF90CF90089540E069E02A
:100490008EE192E0F4D540E063E08EE192E0EFD5AA
:1004A0004BE567E08EE192E0EAD54FE465E08EE14E
:1004B00092E0E5D54FE061E08EE192E0E0D54FE0DB
:1004C00064E08EE192E0DBD547E668E08EE192E001
:1004D000D6D540E066E08EE192E0D1D540E062E022
:1004E0008EE192E0CCC5089540E069E08EE192E0B3
:1004F000C6D540E063E08EE192E0C1D547E667E013
:100500008EE192E0BCD545E065E08EE192E0B7D5A2
:100510004FE461E08EE192E0B2D547E364E08EE122
:1005200092E0ADD54FE468E08EE192E0A8D547E7D0
:1005300066E08EE192E0A3D54FE062E08EE192E0CA
:100540009EC508958EE392E0FBD22FEF81EE94E0FA
:10055000215080409040E1F700C000008EE392E01F
:10056000F5D22FEF81EE94E0215080409040E1F7EA
:1005700000C000008EE392E0E3D22FEF81EE94E022
:10058000215080409040E1F700C000008EE392E0EF
:10059000DDD22FEF85EA9EE0215080409040E1F7C8
:1005A00000C000008EE392E0CBD22FEF81EE94E00A
:1005B000215080409040E1F700C000008EE392E0BF
:1005C000C5D22FEF81EE94E0215080409040E1F7BA
:1005D00000C000008EE392E0B3D22FEF81EE94E0F2
:1005E000215080409040E1F700C0000008958EE364
:1005F00092E0A6D22FEF81EE94E02150804090400F
:10060000E1F700C000008EE392E0A0D22FEF81EE70
:1006100094E0215080409040E1F700C000008EE35C
:1006200092E08ED22FEF81EE94E0215080409040F6
:10063000E1F700C000008EE392E088D22FEF81EE58
:1006400094E0215080409040E1F700C00000089500
:100650002DEC3CEC4CE45EE36091060270910702E5
:100660008091080290910902D7D520912E023091F5
:100670002F02409130025091310232D618162CF1DF
:1006800080914402811112C081E080933D028091EB
:100690001202882359F081E08093440210924302B1
:1006A000109242021092120210923D0241E050E07C
:1006B00060E070E087E192E062D280914202909126
:1006C000430288359240A4F419C08EE392E03ED2F2
:1006D00010923D0240E050E060E070E087E192E07F
:1006E0004ED210924402109243021092420206C06F
:1006F00010924402109243021092420220E030E035
:1007000044E152E460912A0270912B0280912C0204
:1007100090912D0234D7181644F441E050E061E086
:1007200070E087E192E02BD207C040E050E060E04B
:1007300070E087E192E023D2659977C0809113023F
:10074000811173C069C0109213021C9971C080910D
:10075000160281116DC06FC02DEC3CEC4CEC5DE3DA
:1007600060912602709127028091280290912902BF
:1007700053D56093260270932702809328029093AA
:10078000290281E08093160202C010921602809125
:10079000000185FD5AC080911402811156C050C0DD
:1007A0002DEC3CEC4CEC5DE360912602709127024D
:1007B00080912802909129022ED560932602709391
:1007C0002702809328029093290281E080931402EB
:1007D00002C0109214028091000186FD44C08091F5
:1007E0001502811140C036C08091260290912702E7
:1007F000A0912802B09129028093060290930702EB
:10080000A0930802B0930902F2DE81E08093150202
:1008100008951092150208958EE392E097D181E039
:10082000809312028093130290CF65998CCF8DCF65
:100830001C99ABCFACCF8091110281118DCFA1CF8C
:10084000809111028111ACCFC0CF8091000185FD54
:10085000C0CFC1CF9091110281E08927809311020E
:100860008111D3CFC1CF8091000186FDD2CF0895F1
:100870006BDC2FEF83ED90E3215080409040E1F757
:1008800000C0000096D4E0900602F09007020091AC
:1008900008021091090220912E0230912F024091FE
:1008A00030025091310260912A0270912B028091A6
:1008B0002C0290912D02E8DC8AE092E08ED4F12C9B
:1008C000C1E080911002811163C080913F028823B2
:1008D00009F45CC0FC2610923F0260E082E392E0E3
:1008E000A6D200E010E027ED33E440E050E068ECF1
:1008F00072E482E392E0DCD260932E0270932F02C6
:1009000080933002909331026C2F8EE192E0EAD313
:100910006C2F88E192E0E6D3E7DDFF2021F088E14B
:1009200092E0FFD309C060912E0270912F02809156
:1009300030029091310268DD80902E0290902F025B
:10094000A0903002B0903102409002025090030219
:100950006090040270900502A3019201C501B401E8
:100960000ED688233CF08EE392E0E8D0C0931002CC
:10097000E9DDA7CFA3019201C501B401B1D4882359
:100980000CF09FCF8EE392E0D7D09BCF000099CFA1
:10099000C0E05EDE80913F02882309F4AAC061E0D6
:1009A00087E392E044D260E082E392E040D200E04C
:1009B00010E027ED33E440E050E068EC72E482E3BD
:1009C00092E076D260932E0270932F0280933002D1
:1009D0009093310200E010E027ED33E440E050E076
:1009E00068EC72E487E392E063D260932A0270932A
:1009F0002B0280932C0290932D0261E08EE192E015
:100A000071D361E088E192E06DD380913D0288234B
:100A100079F090913C0281E0892780933C02882301
:100A200021F08EE392E08CD003C08EE392E08ED072
:100A300080911102882391F081E0C82751F06091E4
:100A40002602709127028091280290912902DCDC15
:100A500003C088E192E065D319DD19C0E090060279
:100A6000F0900702009108021091090220912E02D5
:100A700030912F02409130025091310260912A0250
:100A800070912B0280912C0290912D02FDDB8090C1
:100A9000060290900702A0900802B0900902C09050
:100AA0002E02D0902F02E0903002F09031022DEC17
:100AB0003CEC4CEC5DE3C501B401ADD3A70196015C
:100AC0000FD4181624F08EE392E038D00FC02DEC2E
:100AD0003CEC4CE45EE3C501B4019DD3A701960153
:100AE0004ED588231CF08EE392E026D010923F0270
:100AF00050CF00004ECF8091060290910702A09146
:100B00000802B09109028093260290932702A093D5
:100B10002802B093290210921F0210921E02109216
:100B20001902109218020895539AE1E0F1E08081D1
:100B3000806180835B9808955B9A08955B9808951F
:100B4000E2E0F1E08081806180830895E2E0F1E0FD
:100B500080818F7E80830895EAE0F1E08081826069
:100B60008083808180628083808188608083E1E0EF
:100B7000F1E08081886080836B9A9D9A089562304D
:100B8000710509F441C03CF46115710569F06130EB
:100B90007105C1F008956430710581F10CF442C013
:100BA00065307105E9F00895452B31F0EBE0F1E097
:100BB0008081826080830895EBE0F1E080818D7F09
:100BC00080830895452B31F0EBE0F1E08081806275
:100BD00080830895EBE0F1E080818F7D808308952C
:100BE000452B31F0E2E0F1E0808188608083089558
:100BF000E2E0F1E08081877F80830895452B11F04A
:100C0000739A089573980895452B31F0EBE0F1E065
:100C10008081886080830895EBE0F1E08081877FA8
:100C200080830895452B11F0A59A0895A5980895FD
:100C30006EBD0DB407FEFDCF8EB50895EF92FF9205
:100C40000F931F93CF93DF937C01EA01122FFC01D6
:100C50008081882319F0813051F011C0EBE0F1E080
:100C600080818E7F808380818460808308C0EBE0F8
:100C7000F1E080818B7F80838081816080836F77CA
:100C8000C701D6DF0FEF010F112361F010E00F5FF6
:100C90001F4F0C0F1D1F6FEFC701CADF8993C017CD
:100CA000D107C9F7F7018081882319F0813039F025
:100CB0000BC0EBE0F1E080818160808305C0EBE058
:100CC000F1E0808184608083DF91CF911F910F914B
:100CD000FF90EF900895CF93DF931F92CDB7DEB7CB
:100CE000198221E0AE014F5F5F4FA8DF89810F902D
:100CF000DF91CF910895CF93DF931F921F92CDB7CD
:100D0000DEB719821A8222E0AE014F5F5F4F96DF95
:100D1000898190E0982F88272A81822B0F900F904D
:100D2000DF91CF9108951F93CF93DF93EC01142FA0
:100D30008881882319F0813051F011C0EBE0F1E097
:100D400080818E7F808380818460808308C0EBE017
:100D5000F1E080818B7F8083808181608083606807
:100D6000CE0166DF612FCE0163DF8881882319F011
:100D7000813039F00BC0EBE0F1E08081816080834D
:100D800005C0EBE0F1E0808184608083DF91CF914A
:100D90001F910895CF93DF93EC0160E09CDF837D8A
:100DA000482F426060E0CE01BEDFDF91CF91089511
:100DB0001F93CF93DF93EC01162F60E08CDF11239C
:100DC00019F0482F406802C0482F4F7760E0CE01ED
:100DD000AADFDF91CF911F9108951F93CF93DF93E7
:100DE000EC01162F60E077DF112319F0482F4064E3
:100DF00002C0482F4F7B60E0CE0195DFDF91CF919D
:100E00001F9108951F93CF93DF93EC01162F60E09D
:100E100062DF113019F4482F406102C0482F4F7E25
:100E200060E0CE0180DFDF91CF911F9108951F9385
:100E3000CF93DF93EC01162FE8E0F1E08081806C26
:100E4000808381D185E58CBD188361E0CE01DADF36
:100E500060E0CE01ADDF60E0CE01BFDFCE019ADF02
:100E600081E0DF91CF911F910895CF93DF93EC0143
:100E700091DF61E0CE019CDF83EC99E00197F1F70F
:100E800000C0000060E0CE0126DF482F406260E035
:100E9000CE0149DF89E79FE30197F1F700C0000029
:100EA00061E0CE0128DF96958795DF91CF91089577
:100EB0004F925F926F927F928F929F92AF92BF926A
:100EC000CF92DF92EF92FF920F931F93CF93DF9316
:100ED0006A017B0148015901C8DFBC0180E090E054
:100EE0009CD220E030E040E058E34DD3A5019401CE
:100EF0004AD34B015C01A70196016FE775E08BE1D6
:100F000096EBF2D12B013C01A5019401C301B20182
:100F10003AD326E133E843E957E37ED19BD322E37A
:100F200031E140E85BE377D12FE735E04BE955EB62
:100F3000DBD1062F172FD82FC92F20E030E0A901D1
:100F40001ED388230CF060C0A7019601C501B4012F
:100F5000CBD120E030E048EC52E415D36B017C01AA
:100F60002BE532E44EE050E40ED32FE135E042E7CA
:100F700053E451D12B013C01A7019601C701B601F1
:100F800002D34B015C0124E338E749E25BE3FBD287
:100F9000A301920141D12B013C01A5019401C7019C
:100FA000B601F1D24B015C0126E03FEE41EA56E387
:100FB000EAD29B01AC01C301B2012DD12B013C014E
:100FC000A5019401C701B601DED24B015C0123E10A
:100FD00037E142EF52E3D7D29B01AC01C301B2012A
:100FE0001AD12B013C01A5019401C701B601CBD256
:100FF0002BE339E947E25FE2C6D2A30192010CD1AB
:10100000062F172FD82FC92F602F712F8D2F9C2FB0
:10101000DF91CF911F910F91FF90EF90DF90CF90D4
:10102000BF90AF909F908F907F906F905F904F9008
:1010300008958CB582658CBD8CB58A7F8CBD84B1DA
:10104000866084B9209A289AE7E0F1E08081806C7C
:101050008083E8E0F1E08081806880838081806423
:10106000808308958EBD0DB407FEFDCF0895FC0169
:1010700071836083538342833583248308951F9350
:10108000CF93DF93EC01142F28813981211531058D
:1010900021F02130310539F00BC0E8E0F1E080812A
:1010A0008F77808305C0E8E0F1E080818F7B8083CB
:1010B000862FD8DF812FD6DF88819981009719F09C
:1010C000019739F00BC0E8E0F1E08081806880830F
:1010D00005C0E8E0F1E0808180648083DF91CF91FA
:1010E0001F910895CF93DF93EC01613011F4A1DFDC
:1010F00015C09FDF4FEF69E0CE01C1DF40E06FE038
:10110000CE01BDDF47E06BE0CE01B9DF4FEF6AE013
:10111000CE01B5DF41E06CE0CE01B1DFDF91CF91D0
:1011200008950F931F93CF938C01FC01C28184819A
:10113000C80F4FE06C2FC801A2DFC150D1F7CF918B
:101140001F910F910895209A8CB580618CBD8CB54C
:1011500080648CBD8CB58C7F8CBD219A229AEAE08C
:10116000F1E0808185608083EBE0F1E08081856043
:1011700080830895FC01718360830895EFE6F0E0B9
:101180008081826080830895072E000C880B990B64
:1011900046D120E030E04AE751E4F5D10DD170931B
:1011A000890060938800E1E8F0E0808185608083B9
:1011B00008951092C50087E68093C40088E9809363
:1011C000C10086E08093C2000895E0ECF0E09081D9
:1011D00095FFFDCF8093C6000895CF93DF93EC0178
:1011E0008881882329F02196F0DF89918111FCCF35
:1011F000DF91CF9108951F920F920FB60F92112495
:101200008F938091C600809345028F910F900FBEFF
:101210000F901F9018955058BB27AA270ED075C164
:1012200066D130F06BD120F031F49F3F11F41EF401
:101230005BC10EF4E095E7FB51C1E92F77D180F354
:10124000BA17620773078407950718F071F49EF5C3
:101250008FC10EF4E0950B2EBA2FA02D0B01B90112
:1012600090010C01CA01A0011124FF27591B99F01C
:10127000593F50F4503E68F11A16F040A22F232F28
:10128000342F4427585FF3CF469537952795A79578
:10129000F0405395C9F77EF41F16BA0B620B730B1F
:1012A000840BBAF09150A1F0FF0FBB1F661F771F90
:1012B000881FC2F70EC0BA0F621F731F841F48F445
:1012C000879577956795B795F7959E3F08F0B3CFCB
:1012D0009395880F08F09927EE0F979587950895B5
:1012E000D9D008F481E008950CD00FC107D140F0A7
:1012F000FED030F021F45F3F19F0F0C0511139C138
:10130000F3C014D198F39923C9F35523B1F3951B76
:10131000550BBB27AA2762177307840738F09F5F16
:101320005F4F220F331F441FAA1FA9F333D00E2E85
:101330003AF0E0E830D091505040E695001CCAF7F2
:1013400029D0FE2F27D0660F771F881FBB1F2617B7
:1013500037074807AB07B0E809F0BB0B802DBF018A
:10136000FF2793585F4F2AF09E3F510568F0B6C0A3
:1013700000C15F3FECF3983EDCF386957795679567
:10138000B795F7959F5FC9F7880F911D969587953B
:1013900097F90895E1E0660F771F881FBB1F62175A
:1013A00073078407BA0720F0621B730B840BBA0B18
:1013B000EE1F88F7E095089504D06894B111D9C064
:1013C0000895BCD088F09F5790F0B92F9927B75156
:1013D000A0F0D1F0660F771F881F991F1AF0BA95F9
:1013E000C9F712C0B13081F0C3D0B1E00895C0C0D8
:1013F000672F782F8827B85F39F0B93FCCF38695EF
:1014000077956795B395D9F73EF49095809570954B
:1014100061957F4F8F4F9F4F0895E89409C097FBC8
:101420003EF490958095709561957F4F8F4F9F4FBB
:101430009923A9F0F92F96E9BB279395F6958795FF
:1014400077956795B795F111F8CFFAF4BB0F11F4C2
:1014500060FF1BC06F5F7F4F8F4F9F4F16C0882369
:1014600011F096E911C0772321F09EE8872F762F9F
:1014700005C0662371F096E8862F70E060E02AF0E0
:101480009A95660F771F881FDAF7880F96958795CC
:1014900097F90895990F0008550FAA0BE0E8FEEFA1
:1014A00016161706E807F907C0F012161306E40728
:1014B000F50798F0621B730B840B950B39F40A2621
:1014C00061F0232B242B252B21F408950A2609F4FF
:1014D000A140A6958FEF811D811D089597F99F6703
:1014E00080E870E060E008959FEF80EC08950024AC
:1014F0000A941616170618060906089500240A9479
:1015000012161306140605060895092E0394000CFE
:1015100011F4882352F0BB0F40F4BF2B11F460FF8D
:1015200004C06F5F7F4F8F4F9F4F089557FD9058B6
:10153000440F551F59F05F3F71F04795880F97FB97
:10154000991F61F09F3F79F0879508951216130651
:101550001406551FF2CF4695F1DF08C01616170680
:101560001806991FF1CF86957105610508940895B5
:10157000E894BB2766277727CB0197F908958ADF80
:1015800008F48FEF08950BD0C0CFB1DF28F0B6DF9D
:1015900018F0952309F0A2CFA7CF1124EACFC6DF18
:1015A000A0F3959FD1F3950F50E0551F629FF00176
:1015B000729FBB27F00DB11D639FAA27F00DB11DCF
:1015C000AA1F649F6627B00DA11D661F829F222758
:1015D000B00DA11D621F739FB00DA11D621F839FDF
:1015E000A00D611D221F749F3327A00D611D231FB5
:1015F000849F600D211D822F762F6A2F11249F5703
:1016000050408AF0E1F088234AF0EE0FFF1FBB1F25
:10161000661F771F881F91505040A9F79E3F5105C4
:1016200070F05CCFA6CF5F3FECF3983EDCF386957D
:1016300077956795B795F795E7959F5FC1F7FE2B6F
:10164000880F911D9695879597F9089511F40EF4DA
:101650004BCF3EC073DFD0F39923D9F3CEF39F571E
:10166000550B87FF43D00024A0E640EA9001805844
:101670005695979528F4805C660F771F881F20F099
:1016800026173707480730F4621B730B840B202999
:1016900031294A2BA69517940794202531254A27EE
:1016A00058F7660F771F881F20F02617370748075F
:1016B00030F4620B730B840B200D311D411DA0957E
:1016C00081F7B901842F9158880F969587950895D1
:1016D0009F3F31F0915020F4879577956795B795A6
:1016E000880F911D9695879597F9089591505040D0
:1016F000660F771F881FD2F7089597FB072E16F401
:10170000009406D077FD08D00BD007FC05D03EF43E
:10171000909581959F4F0895709561957F4F08959D
:10172000AA1BBB1B51E107C0AA1FBB1FA617B70707
:1017300010F0A61BB70B881F991F5A95A9F7809523
:101740009095BC01CD010895EE0FFF1F881F8BBF40
:0C1750000790F691E02D1994F894FFCF5B
:10175C0002000000F04100000C424F6E0D0A000028
:00000001FF
